{
	"contracts/basicSyntax/SolidityViewAndPure.sol": {
		"ExampleViewPure": {
			"abi": [
				{
					"inputs": [
						{
							"internalType": "uint256",
							"name": "a",
							"type": "uint256"
						},
						{
							"internalType": "uint256",
							"name": "b",
							"type": "uint256"
						}
					],
					"name": "getAddition",
					"outputs": [
						{
							"internalType": "uint256",
							"name": "",
							"type": "uint256"
						}
					],
					"stateMutability": "pure",
					"type": "function"
				},
				{
					"inputs": [],
					"name": "getSomeVar",
					"outputs": [
						{
							"internalType": "uint256",
							"name": "",
							"type": "uint256"
						}
					],
					"stateMutability": "view",
					"type": "function"
				},
				{
					"inputs": [],
					"name": "setSomeVar",
					"outputs": [],
					"stateMutability": "nonpayable",
					"type": "function"
				},
				{
					"inputs": [],
					"name": "someVar",
					"outputs": [
						{
							"internalType": "uint256",
							"name": "",
							"type": "uint256"
						}
					],
					"stateMutability": "view",
					"type": "function"
				}
			],
			"devdoc": {
				"kind": "dev",
				"methods": {},
				"version": 1
			},
			"evm": {
				"assembly": "    /* \"contracts/basicSyntax/SolidityViewAndPure.sol\":61:392  contract ExampleViewPure {... */\n  mstore(0x40, 0x80)\n  callvalue\n  dup1\n  iszero\n  tag_1\n  jumpi\n  0x00\n  dup1\n  revert\ntag_1:\n  pop\n  dataSize(sub_0)\n  dup1\n  dataOffset(sub_0)\n  0x00\n  codecopy\n  0x00\n  return\nstop\n\nsub_0: assembly {\n        /* \"contracts/basicSyntax/SolidityViewAndPure.sol\":61:392  contract ExampleViewPure {... */\n      mstore(0x40, 0x80)\n      callvalue\n      dup1\n      iszero\n      tag_1\n      jumpi\n      0x00\n      dup1\n      revert\n    tag_1:\n      pop\n      jumpi(tag_2, lt(calldatasize, 0x04))\n      shr(0xe0, calldataload(0x00))\n      dup1\n      0x04f03b6a\n      eq\n      tag_3\n      jumpi\n      dup1\n      0x08b9e850\n      eq\n      tag_4\n      jumpi\n      dup1\n      0x21eba2da\n      eq\n      tag_5\n      jumpi\n      dup1\n      0x2e3974e9\n      eq\n      tag_6\n      jumpi\n    tag_2:\n      0x00\n      dup1\n      revert\n        /* \"contracts/basicSyntax/SolidityViewAndPure.sol\":123:204  function getSomeVar() public view returns(uint) {... */\n    tag_3:\n      tag_7\n      tag_8\n      jump\t// in\n    tag_7:\n      mload(0x40)\n      tag_9\n      swap2\n      swap1\n      tag_10\n      jump\t// in\n    tag_9:\n      mload(0x40)\n      dup1\n      swap2\n      sub\n      swap1\n      return\n        /* \"contracts/basicSyntax/SolidityViewAndPure.sol\":212:303  function getAddition(uint a, uint b) public pure returns(uint){... */\n    tag_4:\n      tag_11\n      0x04\n      dup1\n      calldatasize\n      sub\n      dup2\n      add\n      swap1\n      tag_12\n      swap2\n      swap1\n      tag_13\n      jump\t// in\n    tag_12:\n      tag_14\n      jump\t// in\n    tag_11:\n      mload(0x40)\n      tag_15\n      swap2\n      swap1\n      tag_10\n      jump\t// in\n    tag_15:\n      mload(0x40)\n      dup1\n      swap2\n      sub\n      swap1\n      return\n        /* \"contracts/basicSyntax/SolidityViewAndPure.sol\":95:114  uint public someVar */\n    tag_5:\n      tag_16\n      tag_17\n      jump\t// in\n    tag_16:\n      mload(0x40)\n      tag_18\n      swap2\n      swap1\n      tag_10\n      jump\t// in\n    tag_18:\n      mload(0x40)\n      dup1\n      swap2\n      sub\n      swap1\n      return\n        /* \"contracts/basicSyntax/SolidityViewAndPure.sol\":312:387  function setSomeVar() public {... */\n    tag_6:\n      tag_19\n      tag_20\n      jump\t// in\n    tag_19:\n      stop\n        /* \"contracts/basicSyntax/SolidityViewAndPure.sol\":123:204  function getSomeVar() public view returns(uint) {... */\n    tag_8:\n        /* \"contracts/basicSyntax/SolidityViewAndPure.sol\":165:169  uint */\n      0x00\n        /* \"contracts/basicSyntax/SolidityViewAndPure.sol\":189:196  someVar */\n      dup1\n      sload\n        /* \"contracts/basicSyntax/SolidityViewAndPure.sol\":182:196  return someVar */\n      swap1\n      pop\n        /* \"contracts/basicSyntax/SolidityViewAndPure.sol\":123:204  function getSomeVar() public view returns(uint) {... */\n      swap1\n      jump\t// out\n        /* \"contracts/basicSyntax/SolidityViewAndPure.sol\":212:303  function getAddition(uint a, uint b) public pure returns(uint){... */\n    tag_14:\n        /* \"contracts/basicSyntax/SolidityViewAndPure.sol\":269:273  uint */\n      0x00\n        /* \"contracts/basicSyntax/SolidityViewAndPure.sol\":294:295  b */\n      dup2\n        /* \"contracts/basicSyntax/SolidityViewAndPure.sol\":292:293  a */\n      dup4\n        /* \"contracts/basicSyntax/SolidityViewAndPure.sol\":292:295  a+b */\n      tag_23\n      swap2\n      swap1\n      tag_24\n      jump\t// in\n    tag_23:\n        /* \"contracts/basicSyntax/SolidityViewAndPure.sol\":285:295  return a+b */\n      swap1\n      pop\n        /* \"contracts/basicSyntax/SolidityViewAndPure.sol\":212:303  function getAddition(uint a, uint b) public pure returns(uint){... */\n      swap3\n      swap2\n      pop\n      pop\n      jump\t// out\n        /* \"contracts/basicSyntax/SolidityViewAndPure.sol\":95:114  uint public someVar */\n    tag_17:\n      sload(0x00)\n      dup2\n      jump\t// out\n        /* \"contracts/basicSyntax/SolidityViewAndPure.sol\":312:387  function setSomeVar() public {... */\n    tag_20:\n        /* \"contracts/basicSyntax/SolidityViewAndPure.sol\":362:379  getAddition(1, 2) */\n      tag_26\n        /* \"contracts/basicSyntax/SolidityViewAndPure.sol\":374:375  1 */\n      0x01\n        /* \"contracts/basicSyntax/SolidityViewAndPure.sol\":377:378  2 */\n      0x02\n        /* \"contracts/basicSyntax/SolidityViewAndPure.sol\":362:373  getAddition */\n      tag_14\n        /* \"contracts/basicSyntax/SolidityViewAndPure.sol\":362:379  getAddition(1, 2) */\n      jump\t// in\n    tag_26:\n        /* \"contracts/basicSyntax/SolidityViewAndPure.sol\":352:359  someVar */\n      0x00\n        /* \"contracts/basicSyntax/SolidityViewAndPure.sol\":352:379  someVar = getAddition(1, 2) */\n      dup2\n      swap1\n      sstore\n      pop\n        /* \"contracts/basicSyntax/SolidityViewAndPure.sol\":312:387  function setSomeVar() public {... */\n      jump\t// out\n        /* \"#utility.yul\":7:84   */\n    tag_27:\n        /* \"#utility.yul\":44:51   */\n      0x00\n        /* \"#utility.yul\":73:78   */\n      dup2\n        /* \"#utility.yul\":62:78   */\n      swap1\n      pop\n        /* \"#utility.yul\":7:84   */\n      swap2\n      swap1\n      pop\n      jump\t// out\n        /* \"#utility.yul\":90:208   */\n    tag_28:\n        /* \"#utility.yul\":177:201   */\n      tag_38\n        /* \"#utility.yul\":195:200   */\n      dup2\n        /* \"#utility.yul\":177:201   */\n      tag_27\n      jump\t// in\n    tag_38:\n        /* \"#utility.yul\":172:175   */\n      dup3\n        /* \"#utility.yul\":165:202   */\n      mstore\n        /* \"#utility.yul\":90:208   */\n      pop\n      pop\n      jump\t// out\n        /* \"#utility.yul\":214:436   */\n    tag_10:\n        /* \"#utility.yul\":307:311   */\n      0x00\n        /* \"#utility.yul\":345:347   */\n      0x20\n        /* \"#utility.yul\":334:343   */\n      dup3\n        /* \"#utility.yul\":330:348   */\n      add\n        /* \"#utility.yul\":322:348   */\n      swap1\n      pop\n        /* \"#utility.yul\":358:429   */\n      tag_40\n        /* \"#utility.yul\":426:427   */\n      0x00\n        /* \"#utility.yul\":415:424   */\n      dup4\n        /* \"#utility.yul\":411:428   */\n      add\n        /* \"#utility.yul\":402:408   */\n      dup5\n        /* \"#utility.yul\":358:429   */\n      tag_28\n      jump\t// in\n    tag_40:\n        /* \"#utility.yul\":214:436   */\n      swap3\n      swap2\n      pop\n      pop\n      jump\t// out\n        /* \"#utility.yul\":523:640   */\n    tag_30:\n        /* \"#utility.yul\":632:633   */\n      0x00\n        /* \"#utility.yul\":629:630   */\n      dup1\n        /* \"#utility.yul\":622:634   */\n      revert\n        /* \"#utility.yul\":769:891   */\n    tag_32:\n        /* \"#utility.yul\":842:866   */\n      tag_45\n        /* \"#utility.yul\":860:865   */\n      dup2\n        /* \"#utility.yul\":842:866   */\n      tag_27\n      jump\t// in\n    tag_45:\n        /* \"#utility.yul\":835:840   */\n      dup2\n        /* \"#utility.yul\":832:867   */\n      eq\n        /* \"#utility.yul\":822:885   */\n      tag_46\n      jumpi\n        /* \"#utility.yul\":881:882   */\n      0x00\n        /* \"#utility.yul\":878:879   */\n      dup1\n        /* \"#utility.yul\":871:883   */\n      revert\n        /* \"#utility.yul\":822:885   */\n    tag_46:\n        /* \"#utility.yul\":769:891   */\n      pop\n      jump\t// out\n        /* \"#utility.yul\":897:1036   */\n    tag_33:\n        /* \"#utility.yul\":943:948   */\n      0x00\n        /* \"#utility.yul\":981:987   */\n      dup2\n        /* \"#utility.yul\":968:988   */\n      calldataload\n        /* \"#utility.yul\":959:988   */\n      swap1\n      pop\n        /* \"#utility.yul\":997:1030   */\n      tag_48\n        /* \"#utility.yul\":1024:1029   */\n      dup2\n        /* \"#utility.yul\":997:1030   */\n      tag_32\n      jump\t// in\n    tag_48:\n        /* \"#utility.yul\":897:1036   */\n      swap3\n      swap2\n      pop\n      pop\n      jump\t// out\n        /* \"#utility.yul\":1042:1516   */\n    tag_13:\n        /* \"#utility.yul\":1110:1116   */\n      0x00\n        /* \"#utility.yul\":1118:1124   */\n      dup1\n        /* \"#utility.yul\":1167:1169   */\n      0x40\n        /* \"#utility.yul\":1155:1164   */\n      dup4\n        /* \"#utility.yul\":1146:1153   */\n      dup6\n        /* \"#utility.yul\":1142:1165   */\n      sub\n        /* \"#utility.yul\":1138:1170   */\n      slt\n        /* \"#utility.yul\":1135:1254   */\n      iszero\n      tag_50\n      jumpi\n        /* \"#utility.yul\":1173:1252   */\n      tag_51\n      tag_30\n      jump\t// in\n    tag_51:\n        /* \"#utility.yul\":1135:1254   */\n    tag_50:\n        /* \"#utility.yul\":1293:1294   */\n      0x00\n        /* \"#utility.yul\":1318:1371   */\n      tag_52\n        /* \"#utility.yul\":1363:1370   */\n      dup6\n        /* \"#utility.yul\":1354:1360   */\n      dup3\n        /* \"#utility.yul\":1343:1352   */\n      dup7\n        /* \"#utility.yul\":1339:1361   */\n      add\n        /* \"#utility.yul\":1318:1371   */\n      tag_33\n      jump\t// in\n    tag_52:\n        /* \"#utility.yul\":1308:1371   */\n      swap3\n      pop\n        /* \"#utility.yul\":1264:1381   */\n      pop\n        /* \"#utility.yul\":1420:1422   */\n      0x20\n        /* \"#utility.yul\":1446:1499   */\n      tag_53\n        /* \"#utility.yul\":1491:1498   */\n      dup6\n        /* \"#utility.yul\":1482:1488   */\n      dup3\n        /* \"#utility.yul\":1471:1480   */\n      dup7\n        /* \"#utility.yul\":1467:1489   */\n      add\n        /* \"#utility.yul\":1446:1499   */\n      tag_33\n      jump\t// in\n    tag_53:\n        /* \"#utility.yul\":1436:1499   */\n      swap2\n      pop\n        /* \"#utility.yul\":1391:1509   */\n      pop\n        /* \"#utility.yul\":1042:1516   */\n      swap3\n      pop\n      swap3\n      swap1\n      pop\n      jump\t// out\n        /* \"#utility.yul\":1522:1702   */\n    tag_34:\n        /* \"#utility.yul\":1570:1647   */\n      0x4e487b7100000000000000000000000000000000000000000000000000000000\n        /* \"#utility.yul\":1567:1568   */\n      0x00\n        /* \"#utility.yul\":1560:1648   */\n      mstore\n        /* \"#utility.yul\":1667:1671   */\n      0x11\n        /* \"#utility.yul\":1664:1665   */\n      0x04\n        /* \"#utility.yul\":1657:1672   */\n      mstore\n        /* \"#utility.yul\":1691:1695   */\n      0x24\n        /* \"#utility.yul\":1688:1689   */\n      0x00\n        /* \"#utility.yul\":1681:1696   */\n      revert\n        /* \"#utility.yul\":1708:2013   */\n    tag_24:\n        /* \"#utility.yul\":1748:1751   */\n      0x00\n        /* \"#utility.yul\":1767:1787   */\n      tag_56\n        /* \"#utility.yul\":1785:1786   */\n      dup3\n        /* \"#utility.yul\":1767:1787   */\n      tag_27\n      jump\t// in\n    tag_56:\n        /* \"#utility.yul\":1762:1787   */\n      swap2\n      pop\n        /* \"#utility.yul\":1801:1821   */\n      tag_57\n        /* \"#utility.yul\":1819:1820   */\n      dup4\n        /* \"#utility.yul\":1801:1821   */\n      tag_27\n      jump\t// in\n    tag_57:\n        /* \"#utility.yul\":1796:1821   */\n      swap3\n      pop\n        /* \"#utility.yul\":1955:1956   */\n      dup3\n        /* \"#utility.yul\":1887:1953   */\n      0xffffffffffffffffffffffffffffffffffffffffffffffffffffffffffffffff\n        /* \"#utility.yul\":1883:1957   */\n      sub\n        /* \"#utility.yul\":1880:1881   */\n      dup3\n        /* \"#utility.yul\":1877:1958   */\n      gt\n        /* \"#utility.yul\":1874:1981   */\n      iszero\n      tag_58\n      jumpi\n        /* \"#utility.yul\":1961:1979   */\n      tag_59\n      tag_34\n      jump\t// in\n    tag_59:\n        /* \"#utility.yul\":1874:1981   */\n    tag_58:\n        /* \"#utility.yul\":2005:2006   */\n      dup3\n        /* \"#utility.yul\":2002:2003   */\n      dup3\n        /* \"#utility.yul\":1998:2007   */\n      add\n        /* \"#utility.yul\":1991:2007   */\n      swap1\n      pop\n        /* \"#utility.yul\":1708:2013   */\n      swap3\n      swap2\n      pop\n      pop\n      jump\t// out\n\n    auxdata: 0xa26469706673582212206ecfd2fbaecb88dbc43ffa3da89a7328f3a0a5f00d1e116bbb6e865147b8449564736f6c634300080e0033\n}\n",
				"bytecode": {
					"linkReferences": {},
					"object": "608060405234801561001057600080fd5b50610260806100206000396000f3fe608060405234801561001057600080fd5b506004361061004c5760003560e01c806304f03b6a1461005157806308b9e8501461006f57806321eba2da1461009f5780632e3974e9146100bd575b600080fd5b6100596100c7565b6040516100669190610119565b60405180910390f35b61008960048036038101906100849190610165565b6100d0565b6040516100969190610119565b60405180910390f35b6100a76100e6565b6040516100b49190610119565b60405180910390f35b6100c56100ec565b005b60008054905090565b600081836100de91906101d4565b905092915050565b60005481565b6100f8600160026100d0565b600081905550565b6000819050919050565b61011381610100565b82525050565b600060208201905061012e600083018461010a565b92915050565b600080fd5b61014281610100565b811461014d57600080fd5b50565b60008135905061015f81610139565b92915050565b6000806040838503121561017c5761017b610134565b5b600061018a85828601610150565b925050602061019b85828601610150565b9150509250929050565b7f4e487b7100000000000000000000000000000000000000000000000000000000600052601160045260246000fd5b60006101df82610100565b91506101ea83610100565b9250827fffffffffffffffffffffffffffffffffffffffffffffffffffffffffffffffff0382111561021f5761021e6101a5565b5b82820190509291505056fea26469706673582212206ecfd2fbaecb88dbc43ffa3da89a7328f3a0a5f00d1e116bbb6e865147b8449564736f6c634300080e0033",
					"opcodes": "PUSH1 0x80 PUSH1 0x40 MSTORE CALLVALUE DUP1 ISZERO PUSH2 0x10 JUMPI PUSH1 0x0 DUP1 REVERT JUMPDEST POP PUSH2 0x260 DUP1 PUSH2 0x20 PUSH1 0x0 CODECOPY PUSH1 0x0 RETURN INVALID PUSH1 0x80 PUSH1 0x40 MSTORE CALLVALUE DUP1 ISZERO PUSH2 0x10 JUMPI PUSH1 0x0 DUP1 REVERT JUMPDEST POP PUSH1 0x4 CALLDATASIZE LT PUSH2 0x4C JUMPI PUSH1 0x0 CALLDATALOAD PUSH1 0xE0 SHR DUP1 PUSH4 0x4F03B6A EQ PUSH2 0x51 JUMPI DUP1 PUSH4 0x8B9E850 EQ PUSH2 0x6F JUMPI DUP1 PUSH4 0x21EBA2DA EQ PUSH2 0x9F JUMPI DUP1 PUSH4 0x2E3974E9 EQ PUSH2 0xBD JUMPI JUMPDEST PUSH1 0x0 DUP1 REVERT JUMPDEST PUSH2 0x59 PUSH2 0xC7 JUMP JUMPDEST PUSH1 0x40 MLOAD PUSH2 0x66 SWAP2 SWAP1 PUSH2 0x119 JUMP JUMPDEST PUSH1 0x40 MLOAD DUP1 SWAP2 SUB SWAP1 RETURN JUMPDEST PUSH2 0x89 PUSH1 0x4 DUP1 CALLDATASIZE SUB DUP2 ADD SWAP1 PUSH2 0x84 SWAP2 SWAP1 PUSH2 0x165 JUMP JUMPDEST PUSH2 0xD0 JUMP JUMPDEST PUSH1 0x40 MLOAD PUSH2 0x96 SWAP2 SWAP1 PUSH2 0x119 JUMP JUMPDEST PUSH1 0x40 MLOAD DUP1 SWAP2 SUB SWAP1 RETURN JUMPDEST PUSH2 0xA7 PUSH2 0xE6 JUMP JUMPDEST PUSH1 0x40 MLOAD PUSH2 0xB4 SWAP2 SWAP1 PUSH2 0x119 JUMP JUMPDEST PUSH1 0x40 MLOAD DUP1 SWAP2 SUB SWAP1 RETURN JUMPDEST PUSH2 0xC5 PUSH2 0xEC JUMP JUMPDEST STOP JUMPDEST PUSH1 0x0 DUP1 SLOAD SWAP1 POP SWAP1 JUMP JUMPDEST PUSH1 0x0 DUP2 DUP4 PUSH2 0xDE SWAP2 SWAP1 PUSH2 0x1D4 JUMP JUMPDEST SWAP1 POP SWAP3 SWAP2 POP POP JUMP JUMPDEST PUSH1 0x0 SLOAD DUP2 JUMP JUMPDEST PUSH2 0xF8 PUSH1 0x1 PUSH1 0x2 PUSH2 0xD0 JUMP JUMPDEST PUSH1 0x0 DUP2 SWAP1 SSTORE POP JUMP JUMPDEST PUSH1 0x0 DUP2 SWAP1 POP SWAP2 SWAP1 POP JUMP JUMPDEST PUSH2 0x113 DUP2 PUSH2 0x100 JUMP JUMPDEST DUP3 MSTORE POP POP JUMP JUMPDEST PUSH1 0x0 PUSH1 0x20 DUP3 ADD SWAP1 POP PUSH2 0x12E PUSH1 0x0 DUP4 ADD DUP5 PUSH2 0x10A JUMP JUMPDEST SWAP3 SWAP2 POP POP JUMP JUMPDEST PUSH1 0x0 DUP1 REVERT JUMPDEST PUSH2 0x142 DUP2 PUSH2 0x100 JUMP JUMPDEST DUP2 EQ PUSH2 0x14D JUMPI PUSH1 0x0 DUP1 REVERT JUMPDEST POP JUMP JUMPDEST PUSH1 0x0 DUP2 CALLDATALOAD SWAP1 POP PUSH2 0x15F DUP2 PUSH2 0x139 JUMP JUMPDEST SWAP3 SWAP2 POP POP JUMP JUMPDEST PUSH1 0x0 DUP1 PUSH1 0x40 DUP4 DUP6 SUB SLT ISZERO PUSH2 0x17C JUMPI PUSH2 0x17B PUSH2 0x134 JUMP JUMPDEST JUMPDEST PUSH1 0x0 PUSH2 0x18A DUP6 DUP3 DUP7 ADD PUSH2 0x150 JUMP JUMPDEST SWAP3 POP POP PUSH1 0x20 PUSH2 0x19B DUP6 DUP3 DUP7 ADD PUSH2 0x150 JUMP JUMPDEST SWAP2 POP POP SWAP3 POP SWAP3 SWAP1 POP JUMP JUMPDEST PUSH32 0x4E487B7100000000000000000000000000000000000000000000000000000000 PUSH1 0x0 MSTORE PUSH1 0x11 PUSH1 0x4 MSTORE PUSH1 0x24 PUSH1 0x0 REVERT JUMPDEST PUSH1 0x0 PUSH2 0x1DF DUP3 PUSH2 0x100 JUMP JUMPDEST SWAP2 POP PUSH2 0x1EA DUP4 PUSH2 0x100 JUMP JUMPDEST SWAP3 POP DUP3 PUSH32 0xFFFFFFFFFFFFFFFFFFFFFFFFFFFFFFFFFFFFFFFFFFFFFFFFFFFFFFFFFFFFFFFF SUB DUP3 GT ISZERO PUSH2 0x21F JUMPI PUSH2 0x21E PUSH2 0x1A5 JUMP JUMPDEST JUMPDEST DUP3 DUP3 ADD SWAP1 POP SWAP3 SWAP2 POP POP JUMP INVALID LOG2 PUSH5 0x6970667358 0x22 SLT KECCAK256 PUSH15 0xCFD2FBAECB88DBC43FFA3DA89A7328 RETURN LOG0 0xA5 CREATE 0xD 0x1E GT PUSH12 0xBB6E865147B8449564736F6C PUSH4 0x4300080E STOP CALLER "
				},
				"gasEstimates": {
					"creation": {
						"codeDepositCost": "121600",
						"executionCost": "165",
						"totalCost": "121765"
					},
					"external": {
						"getAddition(uint256,uint256)": "infinite",
						"getSomeVar()": "2415",
						"setSomeVar()": "infinite",
						"someVar()": "2451"
					}
				},
				"methodIdentifiers": {
					"getAddition(uint256,uint256)": "08b9e850",
					"getSomeVar()": "04f03b6a",
					"setSomeVar()": "2e3974e9",
					"someVar()": "21eba2da"
				}
			},
			"storageLayout": {
				"storage": [
					{
						"astId": 3,
						"contract": "contracts/basicSyntax/SolidityViewAndPure.sol:ExampleViewPure",
						"label": "someVar",
						"offset": 0,
						"slot": "0",
						"type": "t_uint256"
					}
				],
				"types": {
					"t_uint256": {
						"encoding": "inplace",
						"label": "uint256",
						"numberOfBytes": "32"
					}
				}
			},
			"userdoc": {
				"kind": "user",
				"methods": {},
				"version": 1
			}
		}
	}
}