{
	"contracts/basicSyntax/exampleStrings.sol": {
		"ExampleString": {
			"abi": [
				{
					"inputs": [
						{
							"internalType": "string",
							"name": "_otherString",
							"type": "string"
						}
					],
					"name": "compareTwoStrings",
					"outputs": [
						{
							"internalType": "bool",
							"name": "",
							"type": "bool"
						}
					],
					"stateMutability": "view",
					"type": "function"
				},
				{
					"inputs": [],
					"name": "doBytesEqaulString",
					"outputs": [
						{
							"internalType": "bool",
							"name": "",
							"type": "bool"
						}
					],
					"stateMutability": "view",
					"type": "function"
				},
				{
					"inputs": [],
					"name": "myBytes",
					"outputs": [
						{
							"internalType": "bytes",
							"name": "",
							"type": "bytes"
						}
					],
					"stateMutability": "view",
					"type": "function"
				},
				{
					"inputs": [
						{
							"internalType": "string",
							"name": "_newString",
							"type": "string"
						}
					],
					"name": "setString",
					"outputs": [],
					"stateMutability": "nonpayable",
					"type": "function"
				},
				{
					"inputs": [],
					"name": "someString",
					"outputs": [
						{
							"internalType": "string",
							"name": "",
							"type": "string"
						}
					],
					"stateMutability": "view",
					"type": "function"
				}
			],
			"devdoc": {
				"kind": "dev",
				"methods": {},
				"version": 1
			},
			"evm": {
				"assembly": "    /* \"contracts/basicSyntax/exampleStrings.sol\":61:642  contract ExampleString {... */\n  mstore(0x40, 0x80)\n    /* \"contracts/basicSyntax/exampleStrings.sol\":91:131  string public someString = \"Hello World\" */\n  mload(0x40)\n  dup1\n  0x40\n  add\n  0x40\n  mstore\n  dup1\n  0x0b\n  dup2\n  mstore\n  0x20\n  add\n  0x48656c6c6f20576f726c64000000000000000000000000000000000000000000\n  dup2\n  mstore\n  pop\n  0x00\n  swap1\n  dup1\n  mload\n  swap1\n  0x20\n  add\n  swap1\n  tag_1\n  swap3\n  swap2\n  swap1\n  tag_2\n  jump\t// in\ntag_1:\n  pop\n    /* \"contracts/basicSyntax/exampleStrings.sol\":138:175  bytes public myBytes = \" Hello World\" */\n  mload(0x40)\n  dup1\n  0x40\n  add\n  0x40\n  mstore\n  dup1\n  0x0c\n  dup2\n  mstore\n  0x20\n  add\n  0x2048656c6c6f20576f726c640000000000000000000000000000000000000000\n  dup2\n  mstore\n  pop\n  0x01\n  swap1\n  dup1\n  mload\n  swap1\n  0x20\n  add\n  swap1\n  tag_3\n  swap3\n  swap2\n  swap1\n  tag_4\n  jump\t// in\ntag_3:\n  pop\n    /* \"contracts/basicSyntax/exampleStrings.sol\":61:642  contract ExampleString {... */\n  callvalue\n  dup1\n  iszero\n  tag_5\n  jumpi\n  0x00\n  dup1\n  revert\ntag_5:\n  pop\n  jump(tag_6)\ntag_2:\n  dup3\n  dup1\n  sload\n  tag_7\n  swap1\n  tag_8\n  jump\t// in\ntag_7:\n  swap1\n  0x00\n  mstore\n  keccak256(0x00, 0x20)\n  swap1\n  0x1f\n  add\n  0x20\n  swap1\n  div\n  dup2\n  add\n  swap3\n  dup3\n  tag_10\n  jumpi\n  0x00\n  dup6\n  sstore\n  jump(tag_9)\ntag_10:\n  dup3\n  0x1f\n  lt\n  tag_11\n  jumpi\n  dup1\n  mload\n  not(0xff)\n  and\n  dup4\n  dup1\n  add\n  or\n  dup6\n  sstore\n  jump(tag_9)\ntag_11:\n  dup3\n  dup1\n  add\n  0x01\n  add\n  dup6\n  sstore\n  dup3\n  iszero\n  tag_9\n  jumpi\n  swap2\n  dup3\n  add\ntag_12:\n  dup3\n  dup2\n  gt\n  iszero\n  tag_13\n  jumpi\n  dup3\n  mload\n  dup3\n  sstore\n  swap2\n  0x20\n  add\n  swap2\n  swap1\n  0x01\n  add\n  swap1\n  jump(tag_12)\ntag_13:\ntag_9:\n  pop\n  swap1\n  pop\n  tag_14\n  swap2\n  swap1\n  tag_15\n  jump\t// in\ntag_14:\n  pop\n  swap1\n  jump\t// out\ntag_4:\n  dup3\n  dup1\n  sload\n  tag_16\n  swap1\n  tag_8\n  jump\t// in\ntag_16:\n  swap1\n  0x00\n  mstore\n  keccak256(0x00, 0x20)\n  swap1\n  0x1f\n  add\n  0x20\n  swap1\n  div\n  dup2\n  add\n  swap3\n  dup3\n  tag_18\n  jumpi\n  0x00\n  dup6\n  sstore\n  jump(tag_17)\ntag_18:\n  dup3\n  0x1f\n  lt\n  tag_19\n  jumpi\n  dup1\n  mload\n  not(0xff)\n  and\n  dup4\n  dup1\n  add\n  or\n  dup6\n  sstore\n  jump(tag_17)\ntag_19:\n  dup3\n  dup1\n  add\n  0x01\n  add\n  dup6\n  sstore\n  dup3\n  iszero\n  tag_17\n  jumpi\n  swap2\n  dup3\n  add\ntag_20:\n  dup3\n  dup2\n  gt\n  iszero\n  tag_21\n  jumpi\n  dup3\n  mload\n  dup3\n  sstore\n  swap2\n  0x20\n  add\n  swap2\n  swap1\n  0x01\n  add\n  swap1\n  jump(tag_20)\ntag_21:\ntag_17:\n  pop\n  swap1\n  pop\n  tag_22\n  swap2\n  swap1\n  tag_15\n  jump\t// in\ntag_22:\n  pop\n  swap1\n  jump\t// out\ntag_15:\ntag_23:\n  dup1\n  dup3\n  gt\n  iszero\n  tag_24\n  jumpi\n  0x00\n  dup2\n  0x00\n  swap1\n  sstore\n  pop\n  0x01\n  add\n  jump(tag_23)\ntag_24:\n  pop\n  swap1\n  jump\t// out\n    /* \"#utility.yul\":7:187   */\ntag_25:\n    /* \"#utility.yul\":55:132   */\n  0x4e487b7100000000000000000000000000000000000000000000000000000000\n    /* \"#utility.yul\":52:53   */\n  0x00\n    /* \"#utility.yul\":45:133   */\n  mstore\n    /* \"#utility.yul\":152:156   */\n  0x22\n    /* \"#utility.yul\":149:150   */\n  0x04\n    /* \"#utility.yul\":142:157   */\n  mstore\n    /* \"#utility.yul\":176:180   */\n  0x24\n    /* \"#utility.yul\":173:174   */\n  0x00\n    /* \"#utility.yul\":166:181   */\n  revert\n    /* \"#utility.yul\":193:513   */\ntag_8:\n    /* \"#utility.yul\":237:243   */\n  0x00\n    /* \"#utility.yul\":274:275   */\n  0x02\n    /* \"#utility.yul\":268:272   */\n  dup3\n    /* \"#utility.yul\":264:276   */\n  div\n    /* \"#utility.yul\":254:276   */\n  swap1\n  pop\n    /* \"#utility.yul\":321:322   */\n  0x01\n    /* \"#utility.yul\":315:319   */\n  dup3\n    /* \"#utility.yul\":311:323   */\n  and\n    /* \"#utility.yul\":342:360   */\n  dup1\n    /* \"#utility.yul\":332:413   */\n  tag_29\n  jumpi\n    /* \"#utility.yul\":398:402   */\n  0x7f\n    /* \"#utility.yul\":390:396   */\n  dup3\n    /* \"#utility.yul\":386:403   */\n  and\n    /* \"#utility.yul\":376:403   */\n  swap2\n  pop\n    /* \"#utility.yul\":332:413   */\ntag_29:\n    /* \"#utility.yul\":460:462   */\n  0x20\n    /* \"#utility.yul\":452:458   */\n  dup3\n    /* \"#utility.yul\":449:463   */\n  lt\n    /* \"#utility.yul\":429:447   */\n  dup2\n    /* \"#utility.yul\":426:464   */\n  sub\n    /* \"#utility.yul\":423:507   */\n  tag_30\n  jumpi\n    /* \"#utility.yul\":479:497   */\n  tag_31\n  tag_25\n  jump\t// in\ntag_31:\n    /* \"#utility.yul\":423:507   */\ntag_30:\n    /* \"#utility.yul\":244:513   */\n  pop\n    /* \"#utility.yul\":193:513   */\n  swap2\n  swap1\n  pop\n  jump\t// out\n    /* \"contracts/basicSyntax/exampleStrings.sol\":61:642  contract ExampleString {... */\ntag_6:\n  dataSize(sub_0)\n  dup1\n  dataOffset(sub_0)\n  0x00\n  codecopy\n  0x00\n  return\nstop\n\nsub_0: assembly {\n        /* \"contracts/basicSyntax/exampleStrings.sol\":61:642  contract ExampleString {... */\n      mstore(0x40, 0x80)\n      callvalue\n      dup1\n      iszero\n      tag_1\n      jumpi\n      0x00\n      dup1\n      revert\n    tag_1:\n      pop\n      jumpi(tag_2, lt(calldatasize, 0x04))\n      shr(0xe0, calldataload(0x00))\n      dup1\n      0x5ce25353\n      eq\n      tag_3\n      jumpi\n      dup1\n      0x712f4602\n      eq\n      tag_4\n      jumpi\n      dup1\n      0x7fcaf666\n      eq\n      tag_5\n      jumpi\n      dup1\n      0xb6e7883b\n      eq\n      tag_6\n      jumpi\n      dup1\n      0xe7a96f6d\n      eq\n      tag_7\n      jumpi\n    tag_2:\n      0x00\n      dup1\n      revert\n        /* \"contracts/basicSyntax/exampleStrings.sol\":286:476  function compareTwoStrings(string memory _otherString) public view returns(bool){... */\n    tag_3:\n      tag_8\n      0x04\n      dup1\n      calldatasize\n      sub\n      dup2\n      add\n      swap1\n      tag_9\n      swap2\n      swap1\n      tag_10\n      jump\t// in\n    tag_9:\n      tag_11\n      jump\t// in\n    tag_8:\n      mload(0x40)\n      tag_12\n      swap2\n      swap1\n      tag_13\n      jump\t// in\n    tag_12:\n      mload(0x40)\n      dup1\n      swap2\n      sub\n      swap1\n      return\n        /* \"contracts/basicSyntax/exampleStrings.sol\":138:175  bytes public myBytes = \" Hello World\" */\n    tag_4:\n      tag_14\n      tag_15\n      jump\t// in\n    tag_14:\n      mload(0x40)\n      tag_16\n      swap2\n      swap1\n      tag_17\n      jump\t// in\n    tag_16:\n      mload(0x40)\n      dup1\n      swap2\n      sub\n      swap1\n      return\n        /* \"contracts/basicSyntax/exampleStrings.sol\":184:278  function setString(string memory _newString) public {... */\n    tag_5:\n      tag_18\n      0x04\n      dup1\n      calldatasize\n      sub\n      dup2\n      add\n      swap1\n      tag_19\n      swap2\n      swap1\n      tag_10\n      jump\t// in\n    tag_19:\n      tag_20\n      jump\t// in\n    tag_18:\n      stop\n        /* \"contracts/basicSyntax/exampleStrings.sol\":484:639  function doBytesEqaulString() public view returns(bool) {... */\n    tag_6:\n      tag_21\n      tag_22\n      jump\t// in\n    tag_21:\n      mload(0x40)\n      tag_23\n      swap2\n      swap1\n      tag_13\n      jump\t// in\n    tag_23:\n      mload(0x40)\n      dup1\n      swap2\n      sub\n      swap1\n      return\n        /* \"contracts/basicSyntax/exampleStrings.sol\":91:131  string public someString = \"Hello World\" */\n    tag_7:\n      tag_24\n      tag_25\n      jump\t// in\n    tag_24:\n      mload(0x40)\n      tag_26\n      swap2\n      swap1\n      tag_27\n      jump\t// in\n    tag_26:\n      mload(0x40)\n      dup1\n      swap2\n      sub\n      swap1\n      return\n        /* \"contracts/basicSyntax/exampleStrings.sol\":286:476  function compareTwoStrings(string memory _otherString) public view returns(bool){... */\n    tag_11:\n        /* \"contracts/basicSyntax/exampleStrings.sol\":361:365  bool */\n      0x00\n        /* \"contracts/basicSyntax/exampleStrings.sol\":454:466  _otherString */\n      dup2\n        /* \"contracts/basicSyntax/exampleStrings.sol\":437:467  abi.encodePacked(_otherString) */\n      add(0x20, mload(0x40))\n      tag_29\n      swap2\n      swap1\n      tag_30\n      jump\t// in\n    tag_29:\n      mload(0x40)\n      0x20\n      dup2\n      dup4\n      sub\n      sub\n      dup2\n      mstore\n      swap1\n      0x40\n      mstore\n        /* \"contracts/basicSyntax/exampleStrings.sol\":427:468  keccak256(abi.encodePacked(_otherString)) */\n      dup1\n      mload\n      swap1\n      0x20\n      add\n      keccak256\n        /* \"contracts/basicSyntax/exampleStrings.sol\":411:421  someString */\n      0x00\n        /* \"contracts/basicSyntax/exampleStrings.sol\":394:422  abi.encodePacked(someString) */\n      add(0x20, mload(0x40))\n      tag_31\n      swap2\n      swap1\n      tag_32\n      jump\t// in\n    tag_31:\n      mload(0x40)\n      0x20\n      dup2\n      dup4\n      sub\n      sub\n      dup2\n      mstore\n      swap1\n      0x40\n      mstore\n        /* \"contracts/basicSyntax/exampleStrings.sol\":384:423  keccak256(abi.encodePacked(someString)) */\n      dup1\n      mload\n      swap1\n      0x20\n      add\n      keccak256\n        /* \"contracts/basicSyntax/exampleStrings.sol\":384:468  keccak256(abi.encodePacked(someString)) == keccak256(abi.encodePacked(_otherString)) */\n      eq\n        /* \"contracts/basicSyntax/exampleStrings.sol\":377:468  return keccak256(abi.encodePacked(someString)) == keccak256(abi.encodePacked(_otherString)) */\n      swap1\n      pop\n        /* \"contracts/basicSyntax/exampleStrings.sol\":286:476  function compareTwoStrings(string memory _otherString) public view returns(bool){... */\n      swap2\n      swap1\n      pop\n      jump\t// out\n        /* \"contracts/basicSyntax/exampleStrings.sol\":138:175  bytes public myBytes = \" Hello World\" */\n    tag_15:\n      0x01\n      dup1\n      sload\n      tag_33\n      swap1\n      tag_34\n      jump\t// in\n    tag_33:\n      dup1\n      0x1f\n      add\n      0x20\n      dup1\n      swap2\n      div\n      mul\n      0x20\n      add\n      mload(0x40)\n      swap1\n      dup2\n      add\n      0x40\n      mstore\n      dup1\n      swap3\n      swap2\n      swap1\n      dup2\n      dup2\n      mstore\n      0x20\n      add\n      dup3\n      dup1\n      sload\n      tag_35\n      swap1\n      tag_34\n      jump\t// in\n    tag_35:\n      dup1\n      iszero\n      tag_36\n      jumpi\n      dup1\n      0x1f\n      lt\n      tag_37\n      jumpi\n      0x0100\n      dup1\n      dup4\n      sload\n      div\n      mul\n      dup4\n      mstore\n      swap2\n      0x20\n      add\n      swap2\n      jump(tag_36)\n    tag_37:\n      dup3\n      add\n      swap2\n      swap1\n      0x00\n      mstore\n      keccak256(0x00, 0x20)\n      swap1\n    tag_38:\n      dup2\n      sload\n      dup2\n      mstore\n      swap1\n      0x01\n      add\n      swap1\n      0x20\n      add\n      dup1\n      dup4\n      gt\n      tag_38\n      jumpi\n      dup3\n      swap1\n      sub\n      0x1f\n      and\n      dup3\n      add\n      swap2\n    tag_36:\n      pop\n      pop\n      pop\n      pop\n      pop\n      dup2\n      jump\t// out\n        /* \"contracts/basicSyntax/exampleStrings.sol\":184:278  function setString(string memory _newString) public {... */\n    tag_20:\n        /* \"contracts/basicSyntax/exampleStrings.sol\":260:270  _newString */\n      dup1\n        /* \"contracts/basicSyntax/exampleStrings.sol\":247:257  someString */\n      0x00\n        /* \"contracts/basicSyntax/exampleStrings.sol\":247:270  someString = _newString */\n      swap1\n      dup1\n      mload\n      swap1\n      0x20\n      add\n      swap1\n      tag_40\n      swap3\n      swap2\n      swap1\n      tag_41\n      jump\t// in\n    tag_40:\n      pop\n        /* \"contracts/basicSyntax/exampleStrings.sol\":184:278  function setString(string memory _newString) public {... */\n      pop\n      jump\t// out\n        /* \"contracts/basicSyntax/exampleStrings.sol\":484:639  function doBytesEqaulString() public view returns(bool) {... */\n    tag_22:\n        /* \"contracts/basicSyntax/exampleStrings.sol\":534:538  bool */\n      0x00\n        /* \"contracts/basicSyntax/exampleStrings.sol\":619:629  someString */\n      dup1\n        /* \"contracts/basicSyntax/exampleStrings.sol\":608:630  abi.encode(someString) */\n      add(0x20, mload(0x40))\n      tag_43\n      swap2\n      swap1\n      tag_44\n      jump\t// in\n    tag_43:\n      mload(0x40)\n      0x20\n      dup2\n      dup4\n      sub\n      sub\n      dup2\n      mstore\n      swap1\n      0x40\n      mstore\n        /* \"contracts/basicSyntax/exampleStrings.sol\":598:631  keccak256(abi.encode(someString)) */\n      dup1\n      mload\n      swap1\n      0x20\n      add\n      keccak256\n        /* \"contracts/basicSyntax/exampleStrings.sol\":585:592  myBytes */\n      0x01\n        /* \"contracts/basicSyntax/exampleStrings.sol\":568:593  abi.encodePacked(myBytes) */\n      add(0x20, mload(0x40))\n      tag_45\n      swap2\n      swap1\n      tag_46\n      jump\t// in\n    tag_45:\n      mload(0x40)\n      0x20\n      dup2\n      dup4\n      sub\n      sub\n      dup2\n      mstore\n      swap1\n      0x40\n      mstore\n        /* \"contracts/basicSyntax/exampleStrings.sol\":558:594  keccak256(abi.encodePacked(myBytes)) */\n      dup1\n      mload\n      swap1\n      0x20\n      add\n      keccak256\n        /* \"contracts/basicSyntax/exampleStrings.sol\":558:631  keccak256(abi.encodePacked(myBytes)) == keccak256(abi.encode(someString)) */\n      eq\n        /* \"contracts/basicSyntax/exampleStrings.sol\":551:631  return keccak256(abi.encodePacked(myBytes)) == keccak256(abi.encode(someString)) */\n      swap1\n      pop\n        /* \"contracts/basicSyntax/exampleStrings.sol\":484:639  function doBytesEqaulString() public view returns(bool) {... */\n      swap1\n      jump\t// out\n        /* \"contracts/basicSyntax/exampleStrings.sol\":91:131  string public someString = \"Hello World\" */\n    tag_25:\n      0x00\n      dup1\n      sload\n      tag_47\n      swap1\n      tag_34\n      jump\t// in\n    tag_47:\n      dup1\n      0x1f\n      add\n      0x20\n      dup1\n      swap2\n      div\n      mul\n      0x20\n      add\n      mload(0x40)\n      swap1\n      dup2\n      add\n      0x40\n      mstore\n      dup1\n      swap3\n      swap2\n      swap1\n      dup2\n      dup2\n      mstore\n      0x20\n      add\n      dup3\n      dup1\n      sload\n      tag_48\n      swap1\n      tag_34\n      jump\t// in\n    tag_48:\n      dup1\n      iszero\n      tag_49\n      jumpi\n      dup1\n      0x1f\n      lt\n      tag_50\n      jumpi\n      0x0100\n      dup1\n      dup4\n      sload\n      div\n      mul\n      dup4\n      mstore\n      swap2\n      0x20\n      add\n      swap2\n      jump(tag_49)\n    tag_50:\n      dup3\n      add\n      swap2\n      swap1\n      0x00\n      mstore\n      keccak256(0x00, 0x20)\n      swap1\n    tag_51:\n      dup2\n      sload\n      dup2\n      mstore\n      swap1\n      0x01\n      add\n      swap1\n      0x20\n      add\n      dup1\n      dup4\n      gt\n      tag_51\n      jumpi\n      dup3\n      swap1\n      sub\n      0x1f\n      and\n      dup3\n      add\n      swap2\n    tag_49:\n      pop\n      pop\n      pop\n      pop\n      pop\n      dup2\n      jump\t// out\n    tag_41:\n      dup3\n      dup1\n      sload\n      tag_52\n      swap1\n      tag_34\n      jump\t// in\n    tag_52:\n      swap1\n      0x00\n      mstore\n      keccak256(0x00, 0x20)\n      swap1\n      0x1f\n      add\n      0x20\n      swap1\n      div\n      dup2\n      add\n      swap3\n      dup3\n      tag_54\n      jumpi\n      0x00\n      dup6\n      sstore\n      jump(tag_53)\n    tag_54:\n      dup3\n      0x1f\n      lt\n      tag_55\n      jumpi\n      dup1\n      mload\n      not(0xff)\n      and\n      dup4\n      dup1\n      add\n      or\n      dup6\n      sstore\n      jump(tag_53)\n    tag_55:\n      dup3\n      dup1\n      add\n      0x01\n      add\n      dup6\n      sstore\n      dup3\n      iszero\n      tag_53\n      jumpi\n      swap2\n      dup3\n      add\n    tag_56:\n      dup3\n      dup2\n      gt\n      iszero\n      tag_57\n      jumpi\n      dup3\n      mload\n      dup3\n      sstore\n      swap2\n      0x20\n      add\n      swap2\n      swap1\n      0x01\n      add\n      swap1\n      jump(tag_56)\n    tag_57:\n    tag_53:\n      pop\n      swap1\n      pop\n      tag_58\n      swap2\n      swap1\n      tag_59\n      jump\t// in\n    tag_58:\n      pop\n      swap1\n      jump\t// out\n    tag_59:\n    tag_60:\n      dup1\n      dup3\n      gt\n      iszero\n      tag_61\n      jumpi\n      0x00\n      dup2\n      0x00\n      swap1\n      sstore\n      pop\n      0x01\n      add\n      jump(tag_60)\n    tag_61:\n      pop\n      swap1\n      jump\t// out\n        /* \"#utility.yul\":7:82   */\n    tag_62:\n        /* \"#utility.yul\":40:46   */\n      0x00\n        /* \"#utility.yul\":73:75   */\n      0x40\n        /* \"#utility.yul\":67:76   */\n      mload\n        /* \"#utility.yul\":57:76   */\n      swap1\n      pop\n        /* \"#utility.yul\":7:82   */\n      swap1\n      jump\t// out\n        /* \"#utility.yul\":88:205   */\n    tag_63:\n        /* \"#utility.yul\":197:198   */\n      0x00\n        /* \"#utility.yul\":194:195   */\n      dup1\n        /* \"#utility.yul\":187:199   */\n      revert\n        /* \"#utility.yul\":211:328   */\n    tag_64:\n        /* \"#utility.yul\":320:321   */\n      0x00\n        /* \"#utility.yul\":317:318   */\n      dup1\n        /* \"#utility.yul\":310:322   */\n      revert\n        /* \"#utility.yul\":334:451   */\n    tag_65:\n        /* \"#utility.yul\":443:444   */\n      0x00\n        /* \"#utility.yul\":440:441   */\n      dup1\n        /* \"#utility.yul\":433:445   */\n      revert\n        /* \"#utility.yul\":457:574   */\n    tag_66:\n        /* \"#utility.yul\":566:567   */\n      0x00\n        /* \"#utility.yul\":563:564   */\n      dup1\n        /* \"#utility.yul\":556:568   */\n      revert\n        /* \"#utility.yul\":580:682   */\n    tag_67:\n        /* \"#utility.yul\":621:627   */\n      0x00\n        /* \"#utility.yul\":672:674   */\n      0x1f\n        /* \"#utility.yul\":668:675   */\n      not\n        /* \"#utility.yul\":663:665   */\n      0x1f\n        /* \"#utility.yul\":656:661   */\n      dup4\n        /* \"#utility.yul\":652:666   */\n      add\n        /* \"#utility.yul\":648:676   */\n      and\n        /* \"#utility.yul\":638:676   */\n      swap1\n      pop\n        /* \"#utility.yul\":580:682   */\n      swap2\n      swap1\n      pop\n      jump\t// out\n        /* \"#utility.yul\":688:868   */\n    tag_68:\n        /* \"#utility.yul\":736:813   */\n      0x4e487b7100000000000000000000000000000000000000000000000000000000\n        /* \"#utility.yul\":733:734   */\n      0x00\n        /* \"#utility.yul\":726:814   */\n      mstore\n        /* \"#utility.yul\":833:837   */\n      0x41\n        /* \"#utility.yul\":830:831   */\n      0x04\n        /* \"#utility.yul\":823:838   */\n      mstore\n        /* \"#utility.yul\":857:861   */\n      0x24\n        /* \"#utility.yul\":854:855   */\n      0x00\n        /* \"#utility.yul\":847:862   */\n      revert\n        /* \"#utility.yul\":874:1155   */\n    tag_69:\n        /* \"#utility.yul\":957:984   */\n      tag_102\n        /* \"#utility.yul\":979:983   */\n      dup3\n        /* \"#utility.yul\":957:984   */\n      tag_67\n      jump\t// in\n    tag_102:\n        /* \"#utility.yul\":949:955   */\n      dup2\n        /* \"#utility.yul\":945:985   */\n      add\n        /* \"#utility.yul\":1087:1093   */\n      dup2\n        /* \"#utility.yul\":1075:1085   */\n      dup2\n        /* \"#utility.yul\":1072:1094   */\n      lt\n        /* \"#utility.yul\":1051:1069   */\n      0xffffffffffffffff\n        /* \"#utility.yul\":1039:1049   */\n      dup3\n        /* \"#utility.yul\":1036:1070   */\n      gt\n        /* \"#utility.yul\":1033:1095   */\n      or\n        /* \"#utility.yul\":1030:1118   */\n      iszero\n      tag_103\n      jumpi\n        /* \"#utility.yul\":1098:1116   */\n      tag_104\n      tag_68\n      jump\t// in\n    tag_104:\n        /* \"#utility.yul\":1030:1118   */\n    tag_103:\n        /* \"#utility.yul\":1138:1148   */\n      dup1\n        /* \"#utility.yul\":1134:1136   */\n      0x40\n        /* \"#utility.yul\":1127:1149   */\n      mstore\n        /* \"#utility.yul\":917:1155   */\n      pop\n        /* \"#utility.yul\":874:1155   */\n      pop\n      pop\n      jump\t// out\n        /* \"#utility.yul\":1161:1290   */\n    tag_70:\n        /* \"#utility.yul\":1195:1201   */\n      0x00\n        /* \"#utility.yul\":1222:1242   */\n      tag_106\n      tag_62\n      jump\t// in\n    tag_106:\n        /* \"#utility.yul\":1212:1242   */\n      swap1\n      pop\n        /* \"#utility.yul\":1251:1284   */\n      tag_107\n        /* \"#utility.yul\":1279:1283   */\n      dup3\n        /* \"#utility.yul\":1271:1277   */\n      dup3\n        /* \"#utility.yul\":1251:1284   */\n      tag_69\n      jump\t// in\n    tag_107:\n        /* \"#utility.yul\":1161:1290   */\n      swap2\n      swap1\n      pop\n      jump\t// out\n        /* \"#utility.yul\":1296:1604   */\n    tag_71:\n        /* \"#utility.yul\":1358:1362   */\n      0x00\n        /* \"#utility.yul\":1448:1466   */\n      0xffffffffffffffff\n        /* \"#utility.yul\":1440:1446   */\n      dup3\n        /* \"#utility.yul\":1437:1467   */\n      gt\n        /* \"#utility.yul\":1434:1490   */\n      iszero\n      tag_109\n      jumpi\n        /* \"#utility.yul\":1470:1488   */\n      tag_110\n      tag_68\n      jump\t// in\n    tag_110:\n        /* \"#utility.yul\":1434:1490   */\n    tag_109:\n        /* \"#utility.yul\":1508:1537   */\n      tag_111\n        /* \"#utility.yul\":1530:1536   */\n      dup3\n        /* \"#utility.yul\":1508:1537   */\n      tag_67\n      jump\t// in\n    tag_111:\n        /* \"#utility.yul\":1500:1537   */\n      swap1\n      pop\n        /* \"#utility.yul\":1592:1596   */\n      0x20\n        /* \"#utility.yul\":1586:1590   */\n      dup2\n        /* \"#utility.yul\":1582:1597   */\n      add\n        /* \"#utility.yul\":1574:1597   */\n      swap1\n      pop\n        /* \"#utility.yul\":1296:1604   */\n      swap2\n      swap1\n      pop\n      jump\t// out\n        /* \"#utility.yul\":1610:1764   */\n    tag_72:\n        /* \"#utility.yul\":1694:1700   */\n      dup3\n        /* \"#utility.yul\":1689:1692   */\n      dup2\n        /* \"#utility.yul\":1684:1687   */\n      dup4\n        /* \"#utility.yul\":1671:1701   */\n      calldatacopy\n        /* \"#utility.yul\":1756:1757   */\n      0x00\n        /* \"#utility.yul\":1747:1753   */\n      dup4\n        /* \"#utility.yul\":1742:1745   */\n      dup4\n        /* \"#utility.yul\":1738:1754   */\n      add\n        /* \"#utility.yul\":1731:1758   */\n      mstore\n        /* \"#utility.yul\":1610:1764   */\n      pop\n      pop\n      pop\n      jump\t// out\n        /* \"#utility.yul\":1770:2182   */\n    tag_73:\n        /* \"#utility.yul\":1848:1853   */\n      0x00\n        /* \"#utility.yul\":1873:1939   */\n      tag_114\n        /* \"#utility.yul\":1889:1938   */\n      tag_115\n        /* \"#utility.yul\":1931:1937   */\n      dup5\n        /* \"#utility.yul\":1889:1938   */\n      tag_71\n      jump\t// in\n    tag_115:\n        /* \"#utility.yul\":1873:1939   */\n      tag_70\n      jump\t// in\n    tag_114:\n        /* \"#utility.yul\":1864:1939   */\n      swap1\n      pop\n        /* \"#utility.yul\":1962:1968   */\n      dup3\n        /* \"#utility.yul\":1955:1960   */\n      dup2\n        /* \"#utility.yul\":1948:1969   */\n      mstore\n        /* \"#utility.yul\":2000:2004   */\n      0x20\n        /* \"#utility.yul\":1993:1998   */\n      dup2\n        /* \"#utility.yul\":1989:2005   */\n      add\n        /* \"#utility.yul\":2038:2041   */\n      dup5\n        /* \"#utility.yul\":2029:2035   */\n      dup5\n        /* \"#utility.yul\":2024:2027   */\n      dup5\n        /* \"#utility.yul\":2020:2036   */\n      add\n        /* \"#utility.yul\":2017:2042   */\n      gt\n        /* \"#utility.yul\":2014:2126   */\n      iszero\n      tag_116\n      jumpi\n        /* \"#utility.yul\":2045:2124   */\n      tag_117\n      tag_66\n      jump\t// in\n    tag_117:\n        /* \"#utility.yul\":2014:2126   */\n    tag_116:\n        /* \"#utility.yul\":2135:2176   */\n      tag_118\n        /* \"#utility.yul\":2169:2175   */\n      dup5\n        /* \"#utility.yul\":2164:2167   */\n      dup3\n        /* \"#utility.yul\":2159:2162   */\n      dup6\n        /* \"#utility.yul\":2135:2176   */\n      tag_72\n      jump\t// in\n    tag_118:\n        /* \"#utility.yul\":1854:2182   */\n      pop\n        /* \"#utility.yul\":1770:2182   */\n      swap4\n      swap3\n      pop\n      pop\n      pop\n      jump\t// out\n        /* \"#utility.yul\":2202:2542   */\n    tag_74:\n        /* \"#utility.yul\":2258:2263   */\n      0x00\n        /* \"#utility.yul\":2307:2310   */\n      dup3\n        /* \"#utility.yul\":2300:2304   */\n      0x1f\n        /* \"#utility.yul\":2292:2298   */\n      dup4\n        /* \"#utility.yul\":2288:2305   */\n      add\n        /* \"#utility.yul\":2284:2311   */\n      slt\n        /* \"#utility.yul\":2274:2396   */\n      tag_120\n      jumpi\n        /* \"#utility.yul\":2315:2394   */\n      tag_121\n      tag_65\n      jump\t// in\n    tag_121:\n        /* \"#utility.yul\":2274:2396   */\n    tag_120:\n        /* \"#utility.yul\":2432:2438   */\n      dup2\n        /* \"#utility.yul\":2419:2439   */\n      calldataload\n        /* \"#utility.yul\":2457:2536   */\n      tag_122\n        /* \"#utility.yul\":2532:2535   */\n      dup5\n        /* \"#utility.yul\":2524:2530   */\n      dup3\n        /* \"#utility.yul\":2517:2521   */\n      0x20\n        /* \"#utility.yul\":2509:2515   */\n      dup7\n        /* \"#utility.yul\":2505:2522   */\n      add\n        /* \"#utility.yul\":2457:2536   */\n      tag_73\n      jump\t// in\n    tag_122:\n        /* \"#utility.yul\":2448:2536   */\n      swap2\n      pop\n        /* \"#utility.yul\":2264:2542   */\n      pop\n        /* \"#utility.yul\":2202:2542   */\n      swap3\n      swap2\n      pop\n      pop\n      jump\t// out\n        /* \"#utility.yul\":2548:3057   */\n    tag_10:\n        /* \"#utility.yul\":2617:2623   */\n      0x00\n        /* \"#utility.yul\":2666:2668   */\n      0x20\n        /* \"#utility.yul\":2654:2663   */\n      dup3\n        /* \"#utility.yul\":2645:2652   */\n      dup5\n        /* \"#utility.yul\":2641:2664   */\n      sub\n        /* \"#utility.yul\":2637:2669   */\n      slt\n        /* \"#utility.yul\":2634:2753   */\n      iszero\n      tag_124\n      jumpi\n        /* \"#utility.yul\":2672:2751   */\n      tag_125\n      tag_63\n      jump\t// in\n    tag_125:\n        /* \"#utility.yul\":2634:2753   */\n    tag_124:\n        /* \"#utility.yul\":2820:2821   */\n      0x00\n        /* \"#utility.yul\":2809:2818   */\n      dup3\n        /* \"#utility.yul\":2805:2822   */\n      add\n        /* \"#utility.yul\":2792:2823   */\n      calldataload\n        /* \"#utility.yul\":2850:2868   */\n      0xffffffffffffffff\n        /* \"#utility.yul\":2842:2848   */\n      dup2\n        /* \"#utility.yul\":2839:2869   */\n      gt\n        /* \"#utility.yul\":2836:2953   */\n      iszero\n      tag_126\n      jumpi\n        /* \"#utility.yul\":2872:2951   */\n      tag_127\n      tag_64\n      jump\t// in\n    tag_127:\n        /* \"#utility.yul\":2836:2953   */\n    tag_126:\n        /* \"#utility.yul\":2977:3040   */\n      tag_128\n        /* \"#utility.yul\":3032:3039   */\n      dup5\n        /* \"#utility.yul\":3023:3029   */\n      dup3\n        /* \"#utility.yul\":3012:3021   */\n      dup6\n        /* \"#utility.yul\":3008:3030   */\n      add\n        /* \"#utility.yul\":2977:3040   */\n      tag_74\n      jump\t// in\n    tag_128:\n        /* \"#utility.yul\":2967:3040   */\n      swap2\n      pop\n        /* \"#utility.yul\":2763:3050   */\n      pop\n        /* \"#utility.yul\":2548:3057   */\n      swap3\n      swap2\n      pop\n      pop\n      jump\t// out\n        /* \"#utility.yul\":3063:3153   */\n    tag_75:\n        /* \"#utility.yul\":3097:3104   */\n      0x00\n        /* \"#utility.yul\":3140:3145   */\n      dup2\n        /* \"#utility.yul\":3133:3146   */\n      iszero\n        /* \"#utility.yul\":3126:3147   */\n      iszero\n        /* \"#utility.yul\":3115:3147   */\n      swap1\n      pop\n        /* \"#utility.yul\":3063:3153   */\n      swap2\n      swap1\n      pop\n      jump\t// out\n        /* \"#utility.yul\":3159:3268   */\n    tag_76:\n        /* \"#utility.yul\":3240:3261   */\n      tag_131\n        /* \"#utility.yul\":3255:3260   */\n      dup2\n        /* \"#utility.yul\":3240:3261   */\n      tag_75\n      jump\t// in\n    tag_131:\n        /* \"#utility.yul\":3235:3238   */\n      dup3\n        /* \"#utility.yul\":3228:3262   */\n      mstore\n        /* \"#utility.yul\":3159:3268   */\n      pop\n      pop\n      jump\t// out\n        /* \"#utility.yul\":3274:3484   */\n    tag_13:\n        /* \"#utility.yul\":3361:3365   */\n      0x00\n        /* \"#utility.yul\":3399:3401   */\n      0x20\n        /* \"#utility.yul\":3388:3397   */\n      dup3\n        /* \"#utility.yul\":3384:3402   */\n      add\n        /* \"#utility.yul\":3376:3402   */\n      swap1\n      pop\n        /* \"#utility.yul\":3412:3477   */\n      tag_133\n        /* \"#utility.yul\":3474:3475   */\n      0x00\n        /* \"#utility.yul\":3463:3472   */\n      dup4\n        /* \"#utility.yul\":3459:3476   */\n      add\n        /* \"#utility.yul\":3450:3456   */\n      dup5\n        /* \"#utility.yul\":3412:3477   */\n      tag_76\n      jump\t// in\n    tag_133:\n        /* \"#utility.yul\":3274:3484   */\n      swap3\n      swap2\n      pop\n      pop\n      jump\t// out\n        /* \"#utility.yul\":3490:3588   */\n    tag_77:\n        /* \"#utility.yul\":3541:3547   */\n      0x00\n        /* \"#utility.yul\":3575:3580   */\n      dup2\n        /* \"#utility.yul\":3569:3581   */\n      mload\n        /* \"#utility.yul\":3559:3581   */\n      swap1\n      pop\n        /* \"#utility.yul\":3490:3588   */\n      swap2\n      swap1\n      pop\n      jump\t// out\n        /* \"#utility.yul\":3594:3762   */\n    tag_78:\n        /* \"#utility.yul\":3677:3688   */\n      0x00\n        /* \"#utility.yul\":3711:3717   */\n      dup3\n        /* \"#utility.yul\":3706:3709   */\n      dup3\n        /* \"#utility.yul\":3699:3718   */\n      mstore\n        /* \"#utility.yul\":3751:3755   */\n      0x20\n        /* \"#utility.yul\":3746:3749   */\n      dup3\n        /* \"#utility.yul\":3742:3756   */\n      add\n        /* \"#utility.yul\":3727:3756   */\n      swap1\n      pop\n        /* \"#utility.yul\":3594:3762   */\n      swap3\n      swap2\n      pop\n      pop\n      jump\t// out\n        /* \"#utility.yul\":3768:4075   */\n    tag_79:\n        /* \"#utility.yul\":3836:3837   */\n      0x00\n        /* \"#utility.yul\":3846:3959   */\n    tag_137:\n        /* \"#utility.yul\":3860:3866   */\n      dup4\n        /* \"#utility.yul\":3857:3858   */\n      dup2\n        /* \"#utility.yul\":3854:3867   */\n      lt\n        /* \"#utility.yul\":3846:3959   */\n      iszero\n      tag_139\n      jumpi\n        /* \"#utility.yul\":3945:3946   */\n      dup1\n        /* \"#utility.yul\":3940:3943   */\n      dup3\n        /* \"#utility.yul\":3936:3947   */\n      add\n        /* \"#utility.yul\":3930:3948   */\n      mload\n        /* \"#utility.yul\":3926:3927   */\n      dup2\n        /* \"#utility.yul\":3921:3924   */\n      dup5\n        /* \"#utility.yul\":3917:3928   */\n      add\n        /* \"#utility.yul\":3910:3949   */\n      mstore\n        /* \"#utility.yul\":3882:3884   */\n      0x20\n        /* \"#utility.yul\":3879:3880   */\n      dup2\n        /* \"#utility.yul\":3875:3885   */\n      add\n        /* \"#utility.yul\":3870:3885   */\n      swap1\n      pop\n        /* \"#utility.yul\":3846:3959   */\n      jump(tag_137)\n    tag_139:\n        /* \"#utility.yul\":3977:3983   */\n      dup4\n        /* \"#utility.yul\":3974:3975   */\n      dup2\n        /* \"#utility.yul\":3971:3984   */\n      gt\n        /* \"#utility.yul\":3968:4069   */\n      iszero\n      tag_140\n      jumpi\n        /* \"#utility.yul\":4057:4058   */\n      0x00\n        /* \"#utility.yul\":4048:4054   */\n      dup5\n        /* \"#utility.yul\":4043:4046   */\n      dup5\n        /* \"#utility.yul\":4039:4055   */\n      add\n        /* \"#utility.yul\":4032:4059   */\n      mstore\n        /* \"#utility.yul\":3968:4069   */\n    tag_140:\n        /* \"#utility.yul\":3817:4075   */\n      pop\n        /* \"#utility.yul\":3768:4075   */\n      pop\n      pop\n      pop\n      jump\t// out\n        /* \"#utility.yul\":4081:4441   */\n    tag_80:\n        /* \"#utility.yul\":4167:4170   */\n      0x00\n        /* \"#utility.yul\":4195:4233   */\n      tag_142\n        /* \"#utility.yul\":4227:4232   */\n      dup3\n        /* \"#utility.yul\":4195:4233   */\n      tag_77\n      jump\t// in\n    tag_142:\n        /* \"#utility.yul\":4249:4319   */\n      tag_143\n        /* \"#utility.yul\":4312:4318   */\n      dup2\n        /* \"#utility.yul\":4307:4310   */\n      dup6\n        /* \"#utility.yul\":4249:4319   */\n      tag_78\n      jump\t// in\n    tag_143:\n        /* \"#utility.yul\":4242:4319   */\n      swap4\n      pop\n        /* \"#utility.yul\":4328:4380   */\n      tag_144\n        /* \"#utility.yul\":4373:4379   */\n      dup2\n        /* \"#utility.yul\":4368:4371   */\n      dup6\n        /* \"#utility.yul\":4361:4365   */\n      0x20\n        /* \"#utility.yul\":4354:4359   */\n      dup7\n        /* \"#utility.yul\":4350:4366   */\n      add\n        /* \"#utility.yul\":4328:4380   */\n      tag_79\n      jump\t// in\n    tag_144:\n        /* \"#utility.yul\":4405:4434   */\n      tag_145\n        /* \"#utility.yul\":4427:4433   */\n      dup2\n        /* \"#utility.yul\":4405:4434   */\n      tag_67\n      jump\t// in\n    tag_145:\n        /* \"#utility.yul\":4400:4403   */\n      dup5\n        /* \"#utility.yul\":4396:4435   */\n      add\n        /* \"#utility.yul\":4389:4435   */\n      swap2\n      pop\n        /* \"#utility.yul\":4171:4441   */\n      pop\n        /* \"#utility.yul\":4081:4441   */\n      swap3\n      swap2\n      pop\n      pop\n      jump\t// out\n        /* \"#utility.yul\":4447:4756   */\n    tag_17:\n        /* \"#utility.yul\":4558:4562   */\n      0x00\n        /* \"#utility.yul\":4596:4598   */\n      0x20\n        /* \"#utility.yul\":4585:4594   */\n      dup3\n        /* \"#utility.yul\":4581:4599   */\n      add\n        /* \"#utility.yul\":4573:4599   */\n      swap1\n      pop\n        /* \"#utility.yul\":4645:4654   */\n      dup2\n        /* \"#utility.yul\":4639:4643   */\n      dup2\n        /* \"#utility.yul\":4635:4655   */\n      sub\n        /* \"#utility.yul\":4631:4632   */\n      0x00\n        /* \"#utility.yul\":4620:4629   */\n      dup4\n        /* \"#utility.yul\":4616:4633   */\n      add\n        /* \"#utility.yul\":4609:4656   */\n      mstore\n        /* \"#utility.yul\":4673:4749   */\n      tag_147\n        /* \"#utility.yul\":4744:4748   */\n      dup2\n        /* \"#utility.yul\":4735:4741   */\n      dup5\n        /* \"#utility.yul\":4673:4749   */\n      tag_80\n      jump\t// in\n    tag_147:\n        /* \"#utility.yul\":4665:4749   */\n      swap1\n      pop\n        /* \"#utility.yul\":4447:4756   */\n      swap3\n      swap2\n      pop\n      pop\n      jump\t// out\n        /* \"#utility.yul\":4762:4861   */\n    tag_81:\n        /* \"#utility.yul\":4814:4820   */\n      0x00\n        /* \"#utility.yul\":4848:4853   */\n      dup2\n        /* \"#utility.yul\":4842:4854   */\n      mload\n        /* \"#utility.yul\":4832:4854   */\n      swap1\n      pop\n        /* \"#utility.yul\":4762:4861   */\n      swap2\n      swap1\n      pop\n      jump\t// out\n        /* \"#utility.yul\":4867:5036   */\n    tag_82:\n        /* \"#utility.yul\":4951:4962   */\n      0x00\n        /* \"#utility.yul\":4985:4991   */\n      dup3\n        /* \"#utility.yul\":4980:4983   */\n      dup3\n        /* \"#utility.yul\":4973:4992   */\n      mstore\n        /* \"#utility.yul\":5025:5029   */\n      0x20\n        /* \"#utility.yul\":5020:5023   */\n      dup3\n        /* \"#utility.yul\":5016:5030   */\n      add\n        /* \"#utility.yul\":5001:5030   */\n      swap1\n      pop\n        /* \"#utility.yul\":4867:5036   */\n      swap3\n      swap2\n      pop\n      pop\n      jump\t// out\n        /* \"#utility.yul\":5042:5406   */\n    tag_83:\n        /* \"#utility.yul\":5130:5133   */\n      0x00\n        /* \"#utility.yul\":5158:5197   */\n      tag_151\n        /* \"#utility.yul\":5191:5196   */\n      dup3\n        /* \"#utility.yul\":5158:5197   */\n      tag_81\n      jump\t// in\n    tag_151:\n        /* \"#utility.yul\":5213:5284   */\n      tag_152\n        /* \"#utility.yul\":5277:5283   */\n      dup2\n        /* \"#utility.yul\":5272:5275   */\n      dup6\n        /* \"#utility.yul\":5213:5284   */\n      tag_82\n      jump\t// in\n    tag_152:\n        /* \"#utility.yul\":5206:5284   */\n      swap4\n      pop\n        /* \"#utility.yul\":5293:5345   */\n      tag_153\n        /* \"#utility.yul\":5338:5344   */\n      dup2\n        /* \"#utility.yul\":5333:5336   */\n      dup6\n        /* \"#utility.yul\":5326:5330   */\n      0x20\n        /* \"#utility.yul\":5319:5324   */\n      dup7\n        /* \"#utility.yul\":5315:5331   */\n      add\n        /* \"#utility.yul\":5293:5345   */\n      tag_79\n      jump\t// in\n    tag_153:\n        /* \"#utility.yul\":5370:5399   */\n      tag_154\n        /* \"#utility.yul\":5392:5398   */\n      dup2\n        /* \"#utility.yul\":5370:5399   */\n      tag_67\n      jump\t// in\n    tag_154:\n        /* \"#utility.yul\":5365:5368   */\n      dup5\n        /* \"#utility.yul\":5361:5400   */\n      add\n        /* \"#utility.yul\":5354:5400   */\n      swap2\n      pop\n        /* \"#utility.yul\":5134:5406   */\n      pop\n        /* \"#utility.yul\":5042:5406   */\n      swap3\n      swap2\n      pop\n      pop\n      jump\t// out\n        /* \"#utility.yul\":5412:5725   */\n    tag_27:\n        /* \"#utility.yul\":5525:5529   */\n      0x00\n        /* \"#utility.yul\":5563:5565   */\n      0x20\n        /* \"#utility.yul\":5552:5561   */\n      dup3\n        /* \"#utility.yul\":5548:5566   */\n      add\n        /* \"#utility.yul\":5540:5566   */\n      swap1\n      pop\n        /* \"#utility.yul\":5612:5621   */\n      dup2\n        /* \"#utility.yul\":5606:5610   */\n      dup2\n        /* \"#utility.yul\":5602:5622   */\n      sub\n        /* \"#utility.yul\":5598:5599   */\n      0x00\n        /* \"#utility.yul\":5587:5596   */\n      dup4\n        /* \"#utility.yul\":5583:5600   */\n      add\n        /* \"#utility.yul\":5576:5623   */\n      mstore\n        /* \"#utility.yul\":5640:5718   */\n      tag_156\n        /* \"#utility.yul\":5713:5717   */\n      dup2\n        /* \"#utility.yul\":5704:5710   */\n      dup5\n        /* \"#utility.yul\":5640:5718   */\n      tag_83\n      jump\t// in\n    tag_156:\n        /* \"#utility.yul\":5632:5718   */\n      swap1\n      pop\n        /* \"#utility.yul\":5412:5725   */\n      swap3\n      swap2\n      pop\n      pop\n      jump\t// out\n        /* \"#utility.yul\":5731:5879   */\n    tag_84:\n        /* \"#utility.yul\":5833:5844   */\n      0x00\n        /* \"#utility.yul\":5870:5873   */\n      dup2\n        /* \"#utility.yul\":5855:5873   */\n      swap1\n      pop\n        /* \"#utility.yul\":5731:5879   */\n      swap3\n      swap2\n      pop\n      pop\n      jump\t// out\n        /* \"#utility.yul\":5885:6262   */\n    tag_85:\n        /* \"#utility.yul\":5991:5994   */\n      0x00\n        /* \"#utility.yul\":6019:6058   */\n      tag_159\n        /* \"#utility.yul\":6052:6057   */\n      dup3\n        /* \"#utility.yul\":6019:6058   */\n      tag_81\n      jump\t// in\n    tag_159:\n        /* \"#utility.yul\":6074:6163   */\n      tag_160\n        /* \"#utility.yul\":6156:6162   */\n      dup2\n        /* \"#utility.yul\":6151:6154   */\n      dup6\n        /* \"#utility.yul\":6074:6163   */\n      tag_84\n      jump\t// in\n    tag_160:\n        /* \"#utility.yul\":6067:6163   */\n      swap4\n      pop\n        /* \"#utility.yul\":6172:6224   */\n      tag_161\n        /* \"#utility.yul\":6217:6223   */\n      dup2\n        /* \"#utility.yul\":6212:6215   */\n      dup6\n        /* \"#utility.yul\":6205:6209   */\n      0x20\n        /* \"#utility.yul\":6198:6203   */\n      dup7\n        /* \"#utility.yul\":6194:6210   */\n      add\n        /* \"#utility.yul\":6172:6224   */\n      tag_79\n      jump\t// in\n    tag_161:\n        /* \"#utility.yul\":6249:6255   */\n      dup1\n        /* \"#utility.yul\":6244:6247   */\n      dup5\n        /* \"#utility.yul\":6240:6256   */\n      add\n        /* \"#utility.yul\":6233:6256   */\n      swap2\n      pop\n        /* \"#utility.yul\":5995:6262   */\n      pop\n        /* \"#utility.yul\":5885:6262   */\n      swap3\n      swap2\n      pop\n      pop\n      jump\t// out\n        /* \"#utility.yul\":6268:6543   */\n    tag_30:\n        /* \"#utility.yul\":6400:6403   */\n      0x00\n        /* \"#utility.yul\":6422:6517   */\n      tag_163\n        /* \"#utility.yul\":6513:6516   */\n      dup3\n        /* \"#utility.yul\":6504:6510   */\n      dup5\n        /* \"#utility.yul\":6422:6517   */\n      tag_85\n      jump\t// in\n    tag_163:\n        /* \"#utility.yul\":6415:6517   */\n      swap2\n      pop\n        /* \"#utility.yul\":6534:6537   */\n      dup2\n        /* \"#utility.yul\":6527:6537   */\n      swap1\n      pop\n        /* \"#utility.yul\":6268:6543   */\n      swap3\n      swap2\n      pop\n      pop\n      jump\t// out\n        /* \"#utility.yul\":6549:6729   */\n    tag_86:\n        /* \"#utility.yul\":6597:6674   */\n      0x4e487b7100000000000000000000000000000000000000000000000000000000\n        /* \"#utility.yul\":6594:6595   */\n      0x00\n        /* \"#utility.yul\":6587:6675   */\n      mstore\n        /* \"#utility.yul\":6694:6698   */\n      0x22\n        /* \"#utility.yul\":6691:6692   */\n      0x04\n        /* \"#utility.yul\":6684:6699   */\n      mstore\n        /* \"#utility.yul\":6718:6722   */\n      0x24\n        /* \"#utility.yul\":6715:6716   */\n      0x00\n        /* \"#utility.yul\":6708:6723   */\n      revert\n        /* \"#utility.yul\":6735:7055   */\n    tag_34:\n        /* \"#utility.yul\":6779:6785   */\n      0x00\n        /* \"#utility.yul\":6816:6817   */\n      0x02\n        /* \"#utility.yul\":6810:6814   */\n      dup3\n        /* \"#utility.yul\":6806:6818   */\n      div\n        /* \"#utility.yul\":6796:6818   */\n      swap1\n      pop\n        /* \"#utility.yul\":6863:6864   */\n      0x01\n        /* \"#utility.yul\":6857:6861   */\n      dup3\n        /* \"#utility.yul\":6853:6865   */\n      and\n        /* \"#utility.yul\":6884:6902   */\n      dup1\n        /* \"#utility.yul\":6874:6955   */\n      tag_166\n      jumpi\n        /* \"#utility.yul\":6940:6944   */\n      0x7f\n        /* \"#utility.yul\":6932:6938   */\n      dup3\n        /* \"#utility.yul\":6928:6945   */\n      and\n        /* \"#utility.yul\":6918:6945   */\n      swap2\n      pop\n        /* \"#utility.yul\":6874:6955   */\n    tag_166:\n        /* \"#utility.yul\":7002:7004   */\n      0x20\n        /* \"#utility.yul\":6994:7000   */\n      dup3\n        /* \"#utility.yul\":6991:7005   */\n      lt\n        /* \"#utility.yul\":6971:6989   */\n      dup2\n        /* \"#utility.yul\":6968:7006   */\n      sub\n        /* \"#utility.yul\":6965:7049   */\n      tag_167\n      jumpi\n        /* \"#utility.yul\":7021:7039   */\n      tag_168\n      tag_86\n      jump\t// in\n    tag_168:\n        /* \"#utility.yul\":6965:7049   */\n    tag_167:\n        /* \"#utility.yul\":6786:7055   */\n      pop\n        /* \"#utility.yul\":6735:7055   */\n      swap2\n      swap1\n      pop\n      jump\t// out\n        /* \"#utility.yul\":7061:7202   */\n    tag_87:\n        /* \"#utility.yul\":7110:7114   */\n      0x00\n        /* \"#utility.yul\":7133:7136   */\n      dup2\n        /* \"#utility.yul\":7125:7136   */\n      swap1\n      pop\n        /* \"#utility.yul\":7156:7159   */\n      dup2\n        /* \"#utility.yul\":7153:7154   */\n      0x00\n        /* \"#utility.yul\":7146:7160   */\n      mstore\n        /* \"#utility.yul\":7190:7194   */\n      0x20\n        /* \"#utility.yul\":7187:7188   */\n      0x00\n        /* \"#utility.yul\":7177:7195   */\n      keccak256\n        /* \"#utility.yul\":7169:7195   */\n      swap1\n      pop\n        /* \"#utility.yul\":7061:7202   */\n      swap2\n      swap1\n      pop\n      jump\t// out\n        /* \"#utility.yul\":7232:8077   */\n    tag_88:\n        /* \"#utility.yul\":7335:7338   */\n      0x00\n        /* \"#utility.yul\":7372:7377   */\n      dup2\n        /* \"#utility.yul\":7366:7378   */\n      sload\n        /* \"#utility.yul\":7401:7437   */\n      tag_171\n        /* \"#utility.yul\":7427:7436   */\n      dup2\n        /* \"#utility.yul\":7401:7437   */\n      tag_34\n      jump\t// in\n    tag_171:\n        /* \"#utility.yul\":7453:7542   */\n      tag_172\n        /* \"#utility.yul\":7535:7541   */\n      dup2\n        /* \"#utility.yul\":7530:7533   */\n      dup7\n        /* \"#utility.yul\":7453:7542   */\n      tag_84\n      jump\t// in\n    tag_172:\n        /* \"#utility.yul\":7446:7542   */\n      swap5\n      pop\n        /* \"#utility.yul\":7573:7574   */\n      0x01\n        /* \"#utility.yul\":7562:7571   */\n      dup3\n        /* \"#utility.yul\":7558:7575   */\n      and\n        /* \"#utility.yul\":7589:7590   */\n      0x00\n        /* \"#utility.yul\":7584:7721   */\n      dup2\n      eq\n      tag_174\n      jumpi\n        /* \"#utility.yul\":7735:7736   */\n      0x01\n        /* \"#utility.yul\":7730:8071   */\n      dup2\n      eq\n      tag_175\n      jumpi\n        /* \"#utility.yul\":7551:8071   */\n      jump(tag_173)\n        /* \"#utility.yul\":7584:7721   */\n    tag_174:\n        /* \"#utility.yul\":7668:7672   */\n      0xff\n        /* \"#utility.yul\":7664:7673   */\n      not\n        /* \"#utility.yul\":7653:7662   */\n      dup4\n        /* \"#utility.yul\":7649:7674   */\n      and\n        /* \"#utility.yul\":7644:7647   */\n      dup7\n        /* \"#utility.yul\":7637:7675   */\n      mstore\n        /* \"#utility.yul\":7704:7710   */\n      dup2\n        /* \"#utility.yul\":7699:7702   */\n      dup7\n        /* \"#utility.yul\":7695:7711   */\n      add\n        /* \"#utility.yul\":7688:7711   */\n      swap4\n      pop\n        /* \"#utility.yul\":7584:7721   */\n      jump(tag_173)\n        /* \"#utility.yul\":7730:8071   */\n    tag_175:\n        /* \"#utility.yul\":7797:7835   */\n      tag_176\n        /* \"#utility.yul\":7829:7834   */\n      dup6\n        /* \"#utility.yul\":7797:7835   */\n      tag_87\n      jump\t// in\n    tag_176:\n        /* \"#utility.yul\":7857:7858   */\n      0x00\n        /* \"#utility.yul\":7871:8025   */\n    tag_177:\n        /* \"#utility.yul\":7885:7891   */\n      dup4\n        /* \"#utility.yul\":7882:7883   */\n      dup2\n        /* \"#utility.yul\":7879:7892   */\n      lt\n        /* \"#utility.yul\":7871:8025   */\n      iszero\n      tag_179\n      jumpi\n        /* \"#utility.yul\":7959:7966   */\n      dup2\n        /* \"#utility.yul\":7953:7967   */\n      sload\n        /* \"#utility.yul\":7949:7950   */\n      dup2\n        /* \"#utility.yul\":7944:7947   */\n      dup10\n        /* \"#utility.yul\":7940:7951   */\n      add\n        /* \"#utility.yul\":7933:7968   */\n      mstore\n        /* \"#utility.yul\":8009:8010   */\n      0x01\n        /* \"#utility.yul\":8000:8007   */\n      dup3\n        /* \"#utility.yul\":7996:8011   */\n      add\n        /* \"#utility.yul\":7985:8011   */\n      swap2\n      pop\n        /* \"#utility.yul\":7907:7911   */\n      0x20\n        /* \"#utility.yul\":7904:7905   */\n      dup2\n        /* \"#utility.yul\":7900:7912   */\n      add\n        /* \"#utility.yul\":7895:7912   */\n      swap1\n      pop\n        /* \"#utility.yul\":7871:8025   */\n      jump(tag_177)\n    tag_179:\n        /* \"#utility.yul\":8054:8060   */\n      dup4\n        /* \"#utility.yul\":8049:8052   */\n      dup9\n        /* \"#utility.yul\":8045:8061   */\n      add\n        /* \"#utility.yul\":8038:8061   */\n      swap6\n      pop\n        /* \"#utility.yul\":7737:8071   */\n      pop\n      pop\n        /* \"#utility.yul\":7551:8071   */\n    tag_173:\n      pop\n        /* \"#utility.yul\":7339:8077   */\n      pop\n      pop\n        /* \"#utility.yul\":7232:8077   */\n      swap3\n      swap2\n      pop\n      pop\n      jump\t// out\n        /* \"#utility.yul\":8083:8352   */\n    tag_32:\n        /* \"#utility.yul\":8212:8215   */\n      0x00\n        /* \"#utility.yul\":8234:8326   */\n      tag_181\n        /* \"#utility.yul\":8322:8325   */\n      dup3\n        /* \"#utility.yul\":8313:8319   */\n      dup5\n        /* \"#utility.yul\":8234:8326   */\n      tag_88\n      jump\t// in\n    tag_181:\n        /* \"#utility.yul\":8227:8326   */\n      swap2\n      pop\n        /* \"#utility.yul\":8343:8346   */\n      dup2\n        /* \"#utility.yul\":8336:8346   */\n      swap1\n      pop\n        /* \"#utility.yul\":8083:8352   */\n      swap3\n      swap2\n      pop\n      pop\n      jump\t// out\n        /* \"#utility.yul\":8382:9184   */\n    tag_89:\n        /* \"#utility.yul\":8467:8470   */\n      0x00\n        /* \"#utility.yul\":8504:8509   */\n      dup2\n        /* \"#utility.yul\":8498:8510   */\n      sload\n        /* \"#utility.yul\":8533:8569   */\n      tag_183\n        /* \"#utility.yul\":8559:8568   */\n      dup2\n        /* \"#utility.yul\":8533:8569   */\n      tag_34\n      jump\t// in\n    tag_183:\n        /* \"#utility.yul\":8585:8656   */\n      tag_184\n        /* \"#utility.yul\":8649:8655   */\n      dup2\n        /* \"#utility.yul\":8644:8647   */\n      dup7\n        /* \"#utility.yul\":8585:8656   */\n      tag_82\n      jump\t// in\n    tag_184:\n        /* \"#utility.yul\":8578:8656   */\n      swap5\n      pop\n        /* \"#utility.yul\":8687:8688   */\n      0x01\n        /* \"#utility.yul\":8676:8685   */\n      dup3\n        /* \"#utility.yul\":8672:8689   */\n      and\n        /* \"#utility.yul\":8703:8704   */\n      0x00\n        /* \"#utility.yul\":8698:8833   */\n      dup2\n      eq\n      tag_186\n      jumpi\n        /* \"#utility.yul\":8847:8848   */\n      0x01\n        /* \"#utility.yul\":8842:9178   */\n      dup2\n      eq\n      tag_187\n      jumpi\n        /* \"#utility.yul\":8665:9178   */\n      jump(tag_185)\n        /* \"#utility.yul\":8698:8833   */\n    tag_186:\n        /* \"#utility.yul\":8782:8786   */\n      0xff\n        /* \"#utility.yul\":8778:8787   */\n      not\n        /* \"#utility.yul\":8767:8776   */\n      dup4\n        /* \"#utility.yul\":8763:8788   */\n      and\n        /* \"#utility.yul\":8758:8761   */\n      dup7\n        /* \"#utility.yul\":8751:8789   */\n      mstore\n        /* \"#utility.yul\":8818:8822   */\n      0x20\n        /* \"#utility.yul\":8813:8816   */\n      dup7\n        /* \"#utility.yul\":8809:8823   */\n      add\n        /* \"#utility.yul\":8802:8823   */\n      swap4\n      pop\n        /* \"#utility.yul\":8698:8833   */\n      jump(tag_185)\n        /* \"#utility.yul\":8842:9178   */\n    tag_187:\n        /* \"#utility.yul\":8909:8947   */\n      tag_188\n        /* \"#utility.yul\":8941:8946   */\n      dup6\n        /* \"#utility.yul\":8909:8947   */\n      tag_87\n      jump\t// in\n    tag_188:\n        /* \"#utility.yul\":8969:8970   */\n      0x00\n        /* \"#utility.yul\":8983:9137   */\n    tag_189:\n        /* \"#utility.yul\":8997:9003   */\n      dup4\n        /* \"#utility.yul\":8994:8995   */\n      dup2\n        /* \"#utility.yul\":8991:9004   */\n      lt\n        /* \"#utility.yul\":8983:9137   */\n      iszero\n      tag_191\n      jumpi\n        /* \"#utility.yul\":9071:9078   */\n      dup2\n        /* \"#utility.yul\":9065:9079   */\n      sload\n        /* \"#utility.yul\":9061:9062   */\n      dup2\n        /* \"#utility.yul\":9056:9059   */\n      dup10\n        /* \"#utility.yul\":9052:9063   */\n      add\n        /* \"#utility.yul\":9045:9080   */\n      mstore\n        /* \"#utility.yul\":9121:9122   */\n      0x01\n        /* \"#utility.yul\":9112:9119   */\n      dup3\n        /* \"#utility.yul\":9108:9123   */\n      add\n        /* \"#utility.yul\":9097:9123   */\n      swap2\n      pop\n        /* \"#utility.yul\":9019:9023   */\n      0x20\n        /* \"#utility.yul\":9016:9017   */\n      dup2\n        /* \"#utility.yul\":9012:9024   */\n      add\n        /* \"#utility.yul\":9007:9024   */\n      swap1\n      pop\n        /* \"#utility.yul\":8983:9137   */\n      jump(tag_189)\n    tag_191:\n        /* \"#utility.yul\":9166:9167   */\n      dup1\n        /* \"#utility.yul\":9161:9164   */\n      dup9\n        /* \"#utility.yul\":9157:9168   */\n      add\n        /* \"#utility.yul\":9150:9168   */\n      swap6\n      pop\n        /* \"#utility.yul\":8849:9178   */\n      pop\n      pop\n        /* \"#utility.yul\":8665:9178   */\n    tag_185:\n      pop\n        /* \"#utility.yul\":8471:9184   */\n      pop\n      pop\n        /* \"#utility.yul\":8382:9184   */\n      swap3\n      swap2\n      pop\n      pop\n      jump\t// out\n        /* \"#utility.yul\":9190:9497   */\n    tag_44:\n        /* \"#utility.yul\":9300:9304   */\n      0x00\n        /* \"#utility.yul\":9338:9340   */\n      0x20\n        /* \"#utility.yul\":9327:9336   */\n      dup3\n        /* \"#utility.yul\":9323:9341   */\n      add\n        /* \"#utility.yul\":9315:9341   */\n      swap1\n      pop\n        /* \"#utility.yul\":9387:9396   */\n      dup2\n        /* \"#utility.yul\":9381:9385   */\n      dup2\n        /* \"#utility.yul\":9377:9397   */\n      sub\n        /* \"#utility.yul\":9373:9374   */\n      0x00\n        /* \"#utility.yul\":9362:9371   */\n      dup4\n        /* \"#utility.yul\":9358:9375   */\n      add\n        /* \"#utility.yul\":9351:9398   */\n      mstore\n        /* \"#utility.yul\":9415:9490   */\n      tag_193\n        /* \"#utility.yul\":9485:9489   */\n      dup2\n        /* \"#utility.yul\":9476:9482   */\n      dup5\n        /* \"#utility.yul\":9415:9490   */\n      tag_89\n      jump\t// in\n    tag_193:\n        /* \"#utility.yul\":9407:9490   */\n      swap1\n      pop\n        /* \"#utility.yul\":9190:9497   */\n      swap3\n      swap2\n      pop\n      pop\n      jump\t// out\n        /* \"#utility.yul\":9503:9650   */\n    tag_90:\n        /* \"#utility.yul\":9604:9615   */\n      0x00\n        /* \"#utility.yul\":9641:9644   */\n      dup2\n        /* \"#utility.yul\":9626:9644   */\n      swap1\n      pop\n        /* \"#utility.yul\":9503:9650   */\n      swap3\n      swap2\n      pop\n      pop\n      jump\t// out\n        /* \"#utility.yul\":9656:9796   */\n    tag_91:\n        /* \"#utility.yul\":9704:9708   */\n      0x00\n        /* \"#utility.yul\":9727:9730   */\n      dup2\n        /* \"#utility.yul\":9719:9730   */\n      swap1\n      pop\n        /* \"#utility.yul\":9750:9753   */\n      dup2\n        /* \"#utility.yul\":9747:9748   */\n      0x00\n        /* \"#utility.yul\":9740:9754   */\n      mstore\n        /* \"#utility.yul\":9784:9788   */\n      0x20\n        /* \"#utility.yul\":9781:9782   */\n      0x00\n        /* \"#utility.yul\":9771:9789   */\n      keccak256\n        /* \"#utility.yul\":9763:9789   */\n      swap1\n      pop\n        /* \"#utility.yul\":9656:9796   */\n      swap2\n      swap1\n      pop\n      jump\t// out\n        /* \"#utility.yul\":9824:10665   */\n    tag_92:\n        /* \"#utility.yul\":9925:9928   */\n      0x00\n        /* \"#utility.yul\":9962:9967   */\n      dup2\n        /* \"#utility.yul\":9956:9968   */\n      sload\n        /* \"#utility.yul\":9991:10027   */\n      tag_197\n        /* \"#utility.yul\":10017:10026   */\n      dup2\n        /* \"#utility.yul\":9991:10027   */\n      tag_34\n      jump\t// in\n    tag_197:\n        /* \"#utility.yul\":10043:10131   */\n      tag_198\n        /* \"#utility.yul\":10124:10130   */\n      dup2\n        /* \"#utility.yul\":10119:10122   */\n      dup7\n        /* \"#utility.yul\":10043:10131   */\n      tag_90\n      jump\t// in\n    tag_198:\n        /* \"#utility.yul\":10036:10131   */\n      swap5\n      pop\n        /* \"#utility.yul\":10162:10163   */\n      0x01\n        /* \"#utility.yul\":10151:10160   */\n      dup3\n        /* \"#utility.yul\":10147:10164   */\n      and\n        /* \"#utility.yul\":10178:10179   */\n      0x00\n        /* \"#utility.yul\":10173:10310   */\n      dup2\n      eq\n      tag_200\n      jumpi\n        /* \"#utility.yul\":10324:10325   */\n      0x01\n        /* \"#utility.yul\":10319:10659   */\n      dup2\n      eq\n      tag_201\n      jumpi\n        /* \"#utility.yul\":10140:10659   */\n      jump(tag_199)\n        /* \"#utility.yul\":10173:10310   */\n    tag_200:\n        /* \"#utility.yul\":10257:10261   */\n      0xff\n        /* \"#utility.yul\":10253:10262   */\n      not\n        /* \"#utility.yul\":10242:10251   */\n      dup4\n        /* \"#utility.yul\":10238:10263   */\n      and\n        /* \"#utility.yul\":10233:10236   */\n      dup7\n        /* \"#utility.yul\":10226:10264   */\n      mstore\n        /* \"#utility.yul\":10293:10299   */\n      dup2\n        /* \"#utility.yul\":10288:10291   */\n      dup7\n        /* \"#utility.yul\":10284:10300   */\n      add\n        /* \"#utility.yul\":10277:10300   */\n      swap4\n      pop\n        /* \"#utility.yul\":10173:10310   */\n      jump(tag_199)\n        /* \"#utility.yul\":10319:10659   */\n    tag_201:\n        /* \"#utility.yul\":10386:10423   */\n      tag_202\n        /* \"#utility.yul\":10417:10422   */\n      dup6\n        /* \"#utility.yul\":10386:10423   */\n      tag_91\n      jump\t// in\n    tag_202:\n        /* \"#utility.yul\":10445:10446   */\n      0x00\n        /* \"#utility.yul\":10459:10613   */\n    tag_203:\n        /* \"#utility.yul\":10473:10479   */\n      dup4\n        /* \"#utility.yul\":10470:10471   */\n      dup2\n        /* \"#utility.yul\":10467:10480   */\n      lt\n        /* \"#utility.yul\":10459:10613   */\n      iszero\n      tag_205\n      jumpi\n        /* \"#utility.yul\":10547:10554   */\n      dup2\n        /* \"#utility.yul\":10541:10555   */\n      sload\n        /* \"#utility.yul\":10537:10538   */\n      dup2\n        /* \"#utility.yul\":10532:10535   */\n      dup10\n        /* \"#utility.yul\":10528:10539   */\n      add\n        /* \"#utility.yul\":10521:10556   */\n      mstore\n        /* \"#utility.yul\":10597:10598   */\n      0x01\n        /* \"#utility.yul\":10588:10595   */\n      dup3\n        /* \"#utility.yul\":10584:10599   */\n      add\n        /* \"#utility.yul\":10573:10599   */\n      swap2\n      pop\n        /* \"#utility.yul\":10495:10499   */\n      0x20\n        /* \"#utility.yul\":10492:10493   */\n      dup2\n        /* \"#utility.yul\":10488:10500   */\n      add\n        /* \"#utility.yul\":10483:10500   */\n      swap1\n      pop\n        /* \"#utility.yul\":10459:10613   */\n      jump(tag_203)\n    tag_205:\n        /* \"#utility.yul\":10642:10648   */\n      dup4\n        /* \"#utility.yul\":10637:10640   */\n      dup9\n        /* \"#utility.yul\":10633:10649   */\n      add\n        /* \"#utility.yul\":10626:10649   */\n      swap6\n      pop\n        /* \"#utility.yul\":10326:10659   */\n      pop\n      pop\n        /* \"#utility.yul\":10140:10659   */\n    tag_199:\n      pop\n        /* \"#utility.yul\":9929:10665   */\n      pop\n      pop\n        /* \"#utility.yul\":9824:10665   */\n      swap3\n      swap2\n      pop\n      pop\n      jump\t// out\n        /* \"#utility.yul\":10671:10936   */\n    tag_46:\n        /* \"#utility.yul\":10798:10801   */\n      0x00\n        /* \"#utility.yul\":10820:10910   */\n      tag_207\n        /* \"#utility.yul\":10906:10909   */\n      dup3\n        /* \"#utility.yul\":10897:10903   */\n      dup5\n        /* \"#utility.yul\":10820:10910   */\n      tag_92\n      jump\t// in\n    tag_207:\n        /* \"#utility.yul\":10813:10910   */\n      swap2\n      pop\n        /* \"#utility.yul\":10927:10930   */\n      dup2\n        /* \"#utility.yul\":10920:10930   */\n      swap1\n      pop\n        /* \"#utility.yul\":10671:10936   */\n      swap3\n      swap2\n      pop\n      pop\n      jump\t// out\n\n    auxdata: 0xa2646970667358221220cea9270ce65f6f849920d002482aec37cf987c1f18e10d2e249301647f91f0e464736f6c634300080e0033\n}\n",
				"bytecode": {
					"linkReferences": {},
					"object": "60806040526040518060400160405280600b81526020017f48656c6c6f20576f726c640000000000000000000000000000000000000000008152506000908051906020019062000051929190620000b4565b506040518060400160405280600c81526020017f2048656c6c6f20576f726c640000000000000000000000000000000000000000815250600190805190602001906200009f92919062000145565b50348015620000ad57600080fd5b5062000259565b828054620000c29062000224565b90600052602060002090601f016020900481019282620000e6576000855562000132565b82601f106200010157805160ff191683800117855562000132565b8280016001018555821562000132579182015b828111156200013157825182559160200191906001019062000114565b5b509050620001419190620001d6565b5090565b828054620001539062000224565b90600052602060002090601f016020900481019282620001775760008555620001c3565b82601f106200019257805160ff1916838001178555620001c3565b82800160010185558215620001c3579182015b82811115620001c2578251825591602001919060010190620001a5565b5b509050620001d29190620001d6565b5090565b5b80821115620001f1576000816000905550600101620001d7565b5090565b7f4e487b7100000000000000000000000000000000000000000000000000000000600052602260045260246000fd5b600060028204905060018216806200023d57607f821691505b602082108103620002535762000252620001f5565b5b50919050565b61097180620002696000396000f3fe608060405234801561001057600080fd5b50600436106100575760003560e01c80635ce253531461005c578063712f46021461008c5780637fcaf666146100aa578063b6e7883b146100c6578063e7a96f6d146100e4575b600080fd5b610076600480360381019061007191906104e5565b610102565b6040516100839190610549565b60405180910390f35b61009461015b565b6040516100a191906105ec565b60405180910390f35b6100c460048036038101906100bf91906104e5565b6101e9565b005b6100ce610203565b6040516100db9190610549565b60405180910390f35b6100ec61025a565b6040516100f99190610663565b60405180910390f35b60008160405160200161011591906106c1565b60405160208183030381529060405280519060200120600060405160200161013d91906107cc565b60405160208183030381529060405280519060200120149050919050565b6001805461016890610707565b80601f016020809104026020016040519081016040528092919081815260200182805461019490610707565b80156101e15780601f106101b6576101008083540402835291602001916101e1565b820191906000526020600020905b8154815290600101906020018083116101c457829003601f168201915b505050505081565b80600090805190602001906101ff9291906102e8565b5050565b6000806040516020016102169190610863565b60405160208183030381529060405280519060200120600160405160200161023e9190610924565b6040516020818303038152906040528051906020012014905090565b6000805461026790610707565b80601f016020809104026020016040519081016040528092919081815260200182805461029390610707565b80156102e05780601f106102b5576101008083540402835291602001916102e0565b820191906000526020600020905b8154815290600101906020018083116102c357829003601f168201915b505050505081565b8280546102f490610707565b90600052602060002090601f016020900481019282610316576000855561035d565b82601f1061032f57805160ff191683800117855561035d565b8280016001018555821561035d579182015b8281111561035c578251825591602001919060010190610341565b5b50905061036a919061036e565b5090565b5b8082111561038757600081600090555060010161036f565b5090565b6000604051905090565b600080fd5b600080fd5b600080fd5b600080fd5b6000601f19601f8301169050919050565b7f4e487b7100000000000000000000000000000000000000000000000000000000600052604160045260246000fd5b6103f2826103a9565b810181811067ffffffffffffffff82111715610411576104106103ba565b5b80604052505050565b600061042461038b565b905061043082826103e9565b919050565b600067ffffffffffffffff8211156104505761044f6103ba565b5b610459826103a9565b9050602081019050919050565b82818337600083830152505050565b600061048861048384610435565b61041a565b9050828152602081018484840111156104a4576104a36103a4565b5b6104af848285610466565b509392505050565b600082601f8301126104cc576104cb61039f565b5b81356104dc848260208601610475565b91505092915050565b6000602082840312156104fb576104fa610395565b5b600082013567ffffffffffffffff8111156105195761051861039a565b5b610525848285016104b7565b91505092915050565b60008115159050919050565b6105438161052e565b82525050565b600060208201905061055e600083018461053a565b92915050565b600081519050919050565b600082825260208201905092915050565b60005b8381101561059e578082015181840152602081019050610583565b838111156105ad576000848401525b50505050565b60006105be82610564565b6105c8818561056f565b93506105d8818560208601610580565b6105e1816103a9565b840191505092915050565b6000602082019050818103600083015261060681846105b3565b905092915050565b600081519050919050565b600082825260208201905092915050565b60006106358261060e565b61063f8185610619565b935061064f818560208601610580565b610658816103a9565b840191505092915050565b6000602082019050818103600083015261067d818461062a565b905092915050565b600081905092915050565b600061069b8261060e565b6106a58185610685565b93506106b5818560208601610580565b80840191505092915050565b60006106cd8284610690565b915081905092915050565b7f4e487b7100000000000000000000000000000000000000000000000000000000600052602260045260246000fd5b6000600282049050600182168061071f57607f821691505b602082108103610732576107316106d8565b5b50919050565b60008190508160005260206000209050919050565b6000815461075a81610707565b6107648186610685565b9450600182166000811461077f5760018114610790576107c3565b60ff198316865281860193506107c3565b61079985610738565b60005b838110156107bb5781548189015260018201915060208101905061079c565b838801955050505b50505092915050565b60006107d8828461074d565b915081905092915050565b600081546107f081610707565b6107fa8186610619565b9450600182166000811461081557600181146108275761085a565b60ff198316865260208601935061085a565b61083085610738565b60005b8381101561085257815481890152600182019150602081019050610833565b808801955050505b50505092915050565b6000602082019050818103600083015261087d81846107e3565b905092915050565b600081905092915050565b60008190508160005260206000209050919050565b600081546108b281610707565b6108bc8186610885565b945060018216600081146108d757600181146108e85761091b565b60ff1983168652818601935061091b565b6108f185610890565b60005b83811015610913578154818901526001820191506020810190506108f4565b838801955050505b50505092915050565b600061093082846108a5565b91508190509291505056fea2646970667358221220cea9270ce65f6f849920d002482aec37cf987c1f18e10d2e249301647f91f0e464736f6c634300080e0033",
					"opcodes": "PUSH1 0x80 PUSH1 0x40 MSTORE PUSH1 0x40 MLOAD DUP1 PUSH1 0x40 ADD PUSH1 0x40 MSTORE DUP1 PUSH1 0xB DUP2 MSTORE PUSH1 0x20 ADD PUSH32 0x48656C6C6F20576F726C64000000000000000000000000000000000000000000 DUP2 MSTORE POP PUSH1 0x0 SWAP1 DUP1 MLOAD SWAP1 PUSH1 0x20 ADD SWAP1 PUSH3 0x51 SWAP3 SWAP2 SWAP1 PUSH3 0xB4 JUMP JUMPDEST POP PUSH1 0x40 MLOAD DUP1 PUSH1 0x40 ADD PUSH1 0x40 MSTORE DUP1 PUSH1 0xC DUP2 MSTORE PUSH1 0x20 ADD PUSH32 0x2048656C6C6F20576F726C640000000000000000000000000000000000000000 DUP2 MSTORE POP PUSH1 0x1 SWAP1 DUP1 MLOAD SWAP1 PUSH1 0x20 ADD SWAP1 PUSH3 0x9F SWAP3 SWAP2 SWAP1 PUSH3 0x145 JUMP JUMPDEST POP CALLVALUE DUP1 ISZERO PUSH3 0xAD JUMPI PUSH1 0x0 DUP1 REVERT JUMPDEST POP PUSH3 0x259 JUMP JUMPDEST DUP3 DUP1 SLOAD PUSH3 0xC2 SWAP1 PUSH3 0x224 JUMP JUMPDEST SWAP1 PUSH1 0x0 MSTORE PUSH1 0x20 PUSH1 0x0 KECCAK256 SWAP1 PUSH1 0x1F ADD PUSH1 0x20 SWAP1 DIV DUP2 ADD SWAP3 DUP3 PUSH3 0xE6 JUMPI PUSH1 0x0 DUP6 SSTORE PUSH3 0x132 JUMP JUMPDEST DUP3 PUSH1 0x1F LT PUSH3 0x101 JUMPI DUP1 MLOAD PUSH1 0xFF NOT AND DUP4 DUP1 ADD OR DUP6 SSTORE PUSH3 0x132 JUMP JUMPDEST DUP3 DUP1 ADD PUSH1 0x1 ADD DUP6 SSTORE DUP3 ISZERO PUSH3 0x132 JUMPI SWAP2 DUP3 ADD JUMPDEST DUP3 DUP2 GT ISZERO PUSH3 0x131 JUMPI DUP3 MLOAD DUP3 SSTORE SWAP2 PUSH1 0x20 ADD SWAP2 SWAP1 PUSH1 0x1 ADD SWAP1 PUSH3 0x114 JUMP JUMPDEST JUMPDEST POP SWAP1 POP PUSH3 0x141 SWAP2 SWAP1 PUSH3 0x1D6 JUMP JUMPDEST POP SWAP1 JUMP JUMPDEST DUP3 DUP1 SLOAD PUSH3 0x153 SWAP1 PUSH3 0x224 JUMP JUMPDEST SWAP1 PUSH1 0x0 MSTORE PUSH1 0x20 PUSH1 0x0 KECCAK256 SWAP1 PUSH1 0x1F ADD PUSH1 0x20 SWAP1 DIV DUP2 ADD SWAP3 DUP3 PUSH3 0x177 JUMPI PUSH1 0x0 DUP6 SSTORE PUSH3 0x1C3 JUMP JUMPDEST DUP3 PUSH1 0x1F LT PUSH3 0x192 JUMPI DUP1 MLOAD PUSH1 0xFF NOT AND DUP4 DUP1 ADD OR DUP6 SSTORE PUSH3 0x1C3 JUMP JUMPDEST DUP3 DUP1 ADD PUSH1 0x1 ADD DUP6 SSTORE DUP3 ISZERO PUSH3 0x1C3 JUMPI SWAP2 DUP3 ADD JUMPDEST DUP3 DUP2 GT ISZERO PUSH3 0x1C2 JUMPI DUP3 MLOAD DUP3 SSTORE SWAP2 PUSH1 0x20 ADD SWAP2 SWAP1 PUSH1 0x1 ADD SWAP1 PUSH3 0x1A5 JUMP JUMPDEST JUMPDEST POP SWAP1 POP PUSH3 0x1D2 SWAP2 SWAP1 PUSH3 0x1D6 JUMP JUMPDEST POP SWAP1 JUMP JUMPDEST JUMPDEST DUP1 DUP3 GT ISZERO PUSH3 0x1F1 JUMPI PUSH1 0x0 DUP2 PUSH1 0x0 SWAP1 SSTORE POP PUSH1 0x1 ADD PUSH3 0x1D7 JUMP JUMPDEST POP SWAP1 JUMP JUMPDEST PUSH32 0x4E487B7100000000000000000000000000000000000000000000000000000000 PUSH1 0x0 MSTORE PUSH1 0x22 PUSH1 0x4 MSTORE PUSH1 0x24 PUSH1 0x0 REVERT JUMPDEST PUSH1 0x0 PUSH1 0x2 DUP3 DIV SWAP1 POP PUSH1 0x1 DUP3 AND DUP1 PUSH3 0x23D JUMPI PUSH1 0x7F DUP3 AND SWAP2 POP JUMPDEST PUSH1 0x20 DUP3 LT DUP2 SUB PUSH3 0x253 JUMPI PUSH3 0x252 PUSH3 0x1F5 JUMP JUMPDEST JUMPDEST POP SWAP2 SWAP1 POP JUMP JUMPDEST PUSH2 0x971 DUP1 PUSH3 0x269 PUSH1 0x0 CODECOPY PUSH1 0x0 RETURN INVALID PUSH1 0x80 PUSH1 0x40 MSTORE CALLVALUE DUP1 ISZERO PUSH2 0x10 JUMPI PUSH1 0x0 DUP1 REVERT JUMPDEST POP PUSH1 0x4 CALLDATASIZE LT PUSH2 0x57 JUMPI PUSH1 0x0 CALLDATALOAD PUSH1 0xE0 SHR DUP1 PUSH4 0x5CE25353 EQ PUSH2 0x5C JUMPI DUP1 PUSH4 0x712F4602 EQ PUSH2 0x8C JUMPI DUP1 PUSH4 0x7FCAF666 EQ PUSH2 0xAA JUMPI DUP1 PUSH4 0xB6E7883B EQ PUSH2 0xC6 JUMPI DUP1 PUSH4 0xE7A96F6D EQ PUSH2 0xE4 JUMPI JUMPDEST PUSH1 0x0 DUP1 REVERT JUMPDEST PUSH2 0x76 PUSH1 0x4 DUP1 CALLDATASIZE SUB DUP2 ADD SWAP1 PUSH2 0x71 SWAP2 SWAP1 PUSH2 0x4E5 JUMP JUMPDEST PUSH2 0x102 JUMP JUMPDEST PUSH1 0x40 MLOAD PUSH2 0x83 SWAP2 SWAP1 PUSH2 0x549 JUMP JUMPDEST PUSH1 0x40 MLOAD DUP1 SWAP2 SUB SWAP1 RETURN JUMPDEST PUSH2 0x94 PUSH2 0x15B JUMP JUMPDEST PUSH1 0x40 MLOAD PUSH2 0xA1 SWAP2 SWAP1 PUSH2 0x5EC JUMP JUMPDEST PUSH1 0x40 MLOAD DUP1 SWAP2 SUB SWAP1 RETURN JUMPDEST PUSH2 0xC4 PUSH1 0x4 DUP1 CALLDATASIZE SUB DUP2 ADD SWAP1 PUSH2 0xBF SWAP2 SWAP1 PUSH2 0x4E5 JUMP JUMPDEST PUSH2 0x1E9 JUMP JUMPDEST STOP JUMPDEST PUSH2 0xCE PUSH2 0x203 JUMP JUMPDEST PUSH1 0x40 MLOAD PUSH2 0xDB SWAP2 SWAP1 PUSH2 0x549 JUMP JUMPDEST PUSH1 0x40 MLOAD DUP1 SWAP2 SUB SWAP1 RETURN JUMPDEST PUSH2 0xEC PUSH2 0x25A JUMP JUMPDEST PUSH1 0x40 MLOAD PUSH2 0xF9 SWAP2 SWAP1 PUSH2 0x663 JUMP JUMPDEST PUSH1 0x40 MLOAD DUP1 SWAP2 SUB SWAP1 RETURN JUMPDEST PUSH1 0x0 DUP2 PUSH1 0x40 MLOAD PUSH1 0x20 ADD PUSH2 0x115 SWAP2 SWAP1 PUSH2 0x6C1 JUMP JUMPDEST PUSH1 0x40 MLOAD PUSH1 0x20 DUP2 DUP4 SUB SUB DUP2 MSTORE SWAP1 PUSH1 0x40 MSTORE DUP1 MLOAD SWAP1 PUSH1 0x20 ADD KECCAK256 PUSH1 0x0 PUSH1 0x40 MLOAD PUSH1 0x20 ADD PUSH2 0x13D SWAP2 SWAP1 PUSH2 0x7CC JUMP JUMPDEST PUSH1 0x40 MLOAD PUSH1 0x20 DUP2 DUP4 SUB SUB DUP2 MSTORE SWAP1 PUSH1 0x40 MSTORE DUP1 MLOAD SWAP1 PUSH1 0x20 ADD KECCAK256 EQ SWAP1 POP SWAP2 SWAP1 POP JUMP JUMPDEST PUSH1 0x1 DUP1 SLOAD PUSH2 0x168 SWAP1 PUSH2 0x707 JUMP JUMPDEST DUP1 PUSH1 0x1F ADD PUSH1 0x20 DUP1 SWAP2 DIV MUL PUSH1 0x20 ADD PUSH1 0x40 MLOAD SWAP1 DUP2 ADD PUSH1 0x40 MSTORE DUP1 SWAP3 SWAP2 SWAP1 DUP2 DUP2 MSTORE PUSH1 0x20 ADD DUP3 DUP1 SLOAD PUSH2 0x194 SWAP1 PUSH2 0x707 JUMP JUMPDEST DUP1 ISZERO PUSH2 0x1E1 JUMPI DUP1 PUSH1 0x1F LT PUSH2 0x1B6 JUMPI PUSH2 0x100 DUP1 DUP4 SLOAD DIV MUL DUP4 MSTORE SWAP2 PUSH1 0x20 ADD SWAP2 PUSH2 0x1E1 JUMP JUMPDEST DUP3 ADD SWAP2 SWAP1 PUSH1 0x0 MSTORE PUSH1 0x20 PUSH1 0x0 KECCAK256 SWAP1 JUMPDEST DUP2 SLOAD DUP2 MSTORE SWAP1 PUSH1 0x1 ADD SWAP1 PUSH1 0x20 ADD DUP1 DUP4 GT PUSH2 0x1C4 JUMPI DUP3 SWAP1 SUB PUSH1 0x1F AND DUP3 ADD SWAP2 JUMPDEST POP POP POP POP POP DUP2 JUMP JUMPDEST DUP1 PUSH1 0x0 SWAP1 DUP1 MLOAD SWAP1 PUSH1 0x20 ADD SWAP1 PUSH2 0x1FF SWAP3 SWAP2 SWAP1 PUSH2 0x2E8 JUMP JUMPDEST POP POP JUMP JUMPDEST PUSH1 0x0 DUP1 PUSH1 0x40 MLOAD PUSH1 0x20 ADD PUSH2 0x216 SWAP2 SWAP1 PUSH2 0x863 JUMP JUMPDEST PUSH1 0x40 MLOAD PUSH1 0x20 DUP2 DUP4 SUB SUB DUP2 MSTORE SWAP1 PUSH1 0x40 MSTORE DUP1 MLOAD SWAP1 PUSH1 0x20 ADD KECCAK256 PUSH1 0x1 PUSH1 0x40 MLOAD PUSH1 0x20 ADD PUSH2 0x23E SWAP2 SWAP1 PUSH2 0x924 JUMP JUMPDEST PUSH1 0x40 MLOAD PUSH1 0x20 DUP2 DUP4 SUB SUB DUP2 MSTORE SWAP1 PUSH1 0x40 MSTORE DUP1 MLOAD SWAP1 PUSH1 0x20 ADD KECCAK256 EQ SWAP1 POP SWAP1 JUMP JUMPDEST PUSH1 0x0 DUP1 SLOAD PUSH2 0x267 SWAP1 PUSH2 0x707 JUMP JUMPDEST DUP1 PUSH1 0x1F ADD PUSH1 0x20 DUP1 SWAP2 DIV MUL PUSH1 0x20 ADD PUSH1 0x40 MLOAD SWAP1 DUP2 ADD PUSH1 0x40 MSTORE DUP1 SWAP3 SWAP2 SWAP1 DUP2 DUP2 MSTORE PUSH1 0x20 ADD DUP3 DUP1 SLOAD PUSH2 0x293 SWAP1 PUSH2 0x707 JUMP JUMPDEST DUP1 ISZERO PUSH2 0x2E0 JUMPI DUP1 PUSH1 0x1F LT PUSH2 0x2B5 JUMPI PUSH2 0x100 DUP1 DUP4 SLOAD DIV MUL DUP4 MSTORE SWAP2 PUSH1 0x20 ADD SWAP2 PUSH2 0x2E0 JUMP JUMPDEST DUP3 ADD SWAP2 SWAP1 PUSH1 0x0 MSTORE PUSH1 0x20 PUSH1 0x0 KECCAK256 SWAP1 JUMPDEST DUP2 SLOAD DUP2 MSTORE SWAP1 PUSH1 0x1 ADD SWAP1 PUSH1 0x20 ADD DUP1 DUP4 GT PUSH2 0x2C3 JUMPI DUP3 SWAP1 SUB PUSH1 0x1F AND DUP3 ADD SWAP2 JUMPDEST POP POP POP POP POP DUP2 JUMP JUMPDEST DUP3 DUP1 SLOAD PUSH2 0x2F4 SWAP1 PUSH2 0x707 JUMP JUMPDEST SWAP1 PUSH1 0x0 MSTORE PUSH1 0x20 PUSH1 0x0 KECCAK256 SWAP1 PUSH1 0x1F ADD PUSH1 0x20 SWAP1 DIV DUP2 ADD SWAP3 DUP3 PUSH2 0x316 JUMPI PUSH1 0x0 DUP6 SSTORE PUSH2 0x35D JUMP JUMPDEST DUP3 PUSH1 0x1F LT PUSH2 0x32F JUMPI DUP1 MLOAD PUSH1 0xFF NOT AND DUP4 DUP1 ADD OR DUP6 SSTORE PUSH2 0x35D JUMP JUMPDEST DUP3 DUP1 ADD PUSH1 0x1 ADD DUP6 SSTORE DUP3 ISZERO PUSH2 0x35D JUMPI SWAP2 DUP3 ADD JUMPDEST DUP3 DUP2 GT ISZERO PUSH2 0x35C JUMPI DUP3 MLOAD DUP3 SSTORE SWAP2 PUSH1 0x20 ADD SWAP2 SWAP1 PUSH1 0x1 ADD SWAP1 PUSH2 0x341 JUMP JUMPDEST JUMPDEST POP SWAP1 POP PUSH2 0x36A SWAP2 SWAP1 PUSH2 0x36E JUMP JUMPDEST POP SWAP1 JUMP JUMPDEST JUMPDEST DUP1 DUP3 GT ISZERO PUSH2 0x387 JUMPI PUSH1 0x0 DUP2 PUSH1 0x0 SWAP1 SSTORE POP PUSH1 0x1 ADD PUSH2 0x36F JUMP JUMPDEST POP SWAP1 JUMP JUMPDEST PUSH1 0x0 PUSH1 0x40 MLOAD SWAP1 POP SWAP1 JUMP JUMPDEST PUSH1 0x0 DUP1 REVERT JUMPDEST PUSH1 0x0 DUP1 REVERT JUMPDEST PUSH1 0x0 DUP1 REVERT JUMPDEST PUSH1 0x0 DUP1 REVERT JUMPDEST PUSH1 0x0 PUSH1 0x1F NOT PUSH1 0x1F DUP4 ADD AND SWAP1 POP SWAP2 SWAP1 POP JUMP JUMPDEST PUSH32 0x4E487B7100000000000000000000000000000000000000000000000000000000 PUSH1 0x0 MSTORE PUSH1 0x41 PUSH1 0x4 MSTORE PUSH1 0x24 PUSH1 0x0 REVERT JUMPDEST PUSH2 0x3F2 DUP3 PUSH2 0x3A9 JUMP JUMPDEST DUP2 ADD DUP2 DUP2 LT PUSH8 0xFFFFFFFFFFFFFFFF DUP3 GT OR ISZERO PUSH2 0x411 JUMPI PUSH2 0x410 PUSH2 0x3BA JUMP JUMPDEST JUMPDEST DUP1 PUSH1 0x40 MSTORE POP POP POP JUMP JUMPDEST PUSH1 0x0 PUSH2 0x424 PUSH2 0x38B JUMP JUMPDEST SWAP1 POP PUSH2 0x430 DUP3 DUP3 PUSH2 0x3E9 JUMP JUMPDEST SWAP2 SWAP1 POP JUMP JUMPDEST PUSH1 0x0 PUSH8 0xFFFFFFFFFFFFFFFF DUP3 GT ISZERO PUSH2 0x450 JUMPI PUSH2 0x44F PUSH2 0x3BA JUMP JUMPDEST JUMPDEST PUSH2 0x459 DUP3 PUSH2 0x3A9 JUMP JUMPDEST SWAP1 POP PUSH1 0x20 DUP2 ADD SWAP1 POP SWAP2 SWAP1 POP JUMP JUMPDEST DUP3 DUP2 DUP4 CALLDATACOPY PUSH1 0x0 DUP4 DUP4 ADD MSTORE POP POP POP JUMP JUMPDEST PUSH1 0x0 PUSH2 0x488 PUSH2 0x483 DUP5 PUSH2 0x435 JUMP JUMPDEST PUSH2 0x41A JUMP JUMPDEST SWAP1 POP DUP3 DUP2 MSTORE PUSH1 0x20 DUP2 ADD DUP5 DUP5 DUP5 ADD GT ISZERO PUSH2 0x4A4 JUMPI PUSH2 0x4A3 PUSH2 0x3A4 JUMP JUMPDEST JUMPDEST PUSH2 0x4AF DUP5 DUP3 DUP6 PUSH2 0x466 JUMP JUMPDEST POP SWAP4 SWAP3 POP POP POP JUMP JUMPDEST PUSH1 0x0 DUP3 PUSH1 0x1F DUP4 ADD SLT PUSH2 0x4CC JUMPI PUSH2 0x4CB PUSH2 0x39F JUMP JUMPDEST JUMPDEST DUP2 CALLDATALOAD PUSH2 0x4DC DUP5 DUP3 PUSH1 0x20 DUP7 ADD PUSH2 0x475 JUMP JUMPDEST SWAP2 POP POP SWAP3 SWAP2 POP POP JUMP JUMPDEST PUSH1 0x0 PUSH1 0x20 DUP3 DUP5 SUB SLT ISZERO PUSH2 0x4FB JUMPI PUSH2 0x4FA PUSH2 0x395 JUMP JUMPDEST JUMPDEST PUSH1 0x0 DUP3 ADD CALLDATALOAD PUSH8 0xFFFFFFFFFFFFFFFF DUP2 GT ISZERO PUSH2 0x519 JUMPI PUSH2 0x518 PUSH2 0x39A JUMP JUMPDEST JUMPDEST PUSH2 0x525 DUP5 DUP3 DUP6 ADD PUSH2 0x4B7 JUMP JUMPDEST SWAP2 POP POP SWAP3 SWAP2 POP POP JUMP JUMPDEST PUSH1 0x0 DUP2 ISZERO ISZERO SWAP1 POP SWAP2 SWAP1 POP JUMP JUMPDEST PUSH2 0x543 DUP2 PUSH2 0x52E JUMP JUMPDEST DUP3 MSTORE POP POP JUMP JUMPDEST PUSH1 0x0 PUSH1 0x20 DUP3 ADD SWAP1 POP PUSH2 0x55E PUSH1 0x0 DUP4 ADD DUP5 PUSH2 0x53A JUMP JUMPDEST SWAP3 SWAP2 POP POP JUMP JUMPDEST PUSH1 0x0 DUP2 MLOAD SWAP1 POP SWAP2 SWAP1 POP JUMP JUMPDEST PUSH1 0x0 DUP3 DUP3 MSTORE PUSH1 0x20 DUP3 ADD SWAP1 POP SWAP3 SWAP2 POP POP JUMP JUMPDEST PUSH1 0x0 JUMPDEST DUP4 DUP2 LT ISZERO PUSH2 0x59E JUMPI DUP1 DUP3 ADD MLOAD DUP2 DUP5 ADD MSTORE PUSH1 0x20 DUP2 ADD SWAP1 POP PUSH2 0x583 JUMP JUMPDEST DUP4 DUP2 GT ISZERO PUSH2 0x5AD JUMPI PUSH1 0x0 DUP5 DUP5 ADD MSTORE JUMPDEST POP POP POP POP JUMP JUMPDEST PUSH1 0x0 PUSH2 0x5BE DUP3 PUSH2 0x564 JUMP JUMPDEST PUSH2 0x5C8 DUP2 DUP6 PUSH2 0x56F JUMP JUMPDEST SWAP4 POP PUSH2 0x5D8 DUP2 DUP6 PUSH1 0x20 DUP7 ADD PUSH2 0x580 JUMP JUMPDEST PUSH2 0x5E1 DUP2 PUSH2 0x3A9 JUMP JUMPDEST DUP5 ADD SWAP2 POP POP SWAP3 SWAP2 POP POP JUMP JUMPDEST PUSH1 0x0 PUSH1 0x20 DUP3 ADD SWAP1 POP DUP2 DUP2 SUB PUSH1 0x0 DUP4 ADD MSTORE PUSH2 0x606 DUP2 DUP5 PUSH2 0x5B3 JUMP JUMPDEST SWAP1 POP SWAP3 SWAP2 POP POP JUMP JUMPDEST PUSH1 0x0 DUP2 MLOAD SWAP1 POP SWAP2 SWAP1 POP JUMP JUMPDEST PUSH1 0x0 DUP3 DUP3 MSTORE PUSH1 0x20 DUP3 ADD SWAP1 POP SWAP3 SWAP2 POP POP JUMP JUMPDEST PUSH1 0x0 PUSH2 0x635 DUP3 PUSH2 0x60E JUMP JUMPDEST PUSH2 0x63F DUP2 DUP6 PUSH2 0x619 JUMP JUMPDEST SWAP4 POP PUSH2 0x64F DUP2 DUP6 PUSH1 0x20 DUP7 ADD PUSH2 0x580 JUMP JUMPDEST PUSH2 0x658 DUP2 PUSH2 0x3A9 JUMP JUMPDEST DUP5 ADD SWAP2 POP POP SWAP3 SWAP2 POP POP JUMP JUMPDEST PUSH1 0x0 PUSH1 0x20 DUP3 ADD SWAP1 POP DUP2 DUP2 SUB PUSH1 0x0 DUP4 ADD MSTORE PUSH2 0x67D DUP2 DUP5 PUSH2 0x62A JUMP JUMPDEST SWAP1 POP SWAP3 SWAP2 POP POP JUMP JUMPDEST PUSH1 0x0 DUP2 SWAP1 POP SWAP3 SWAP2 POP POP JUMP JUMPDEST PUSH1 0x0 PUSH2 0x69B DUP3 PUSH2 0x60E JUMP JUMPDEST PUSH2 0x6A5 DUP2 DUP6 PUSH2 0x685 JUMP JUMPDEST SWAP4 POP PUSH2 0x6B5 DUP2 DUP6 PUSH1 0x20 DUP7 ADD PUSH2 0x580 JUMP JUMPDEST DUP1 DUP5 ADD SWAP2 POP POP SWAP3 SWAP2 POP POP JUMP JUMPDEST PUSH1 0x0 PUSH2 0x6CD DUP3 DUP5 PUSH2 0x690 JUMP JUMPDEST SWAP2 POP DUP2 SWAP1 POP SWAP3 SWAP2 POP POP JUMP JUMPDEST PUSH32 0x4E487B7100000000000000000000000000000000000000000000000000000000 PUSH1 0x0 MSTORE PUSH1 0x22 PUSH1 0x4 MSTORE PUSH1 0x24 PUSH1 0x0 REVERT JUMPDEST PUSH1 0x0 PUSH1 0x2 DUP3 DIV SWAP1 POP PUSH1 0x1 DUP3 AND DUP1 PUSH2 0x71F JUMPI PUSH1 0x7F DUP3 AND SWAP2 POP JUMPDEST PUSH1 0x20 DUP3 LT DUP2 SUB PUSH2 0x732 JUMPI PUSH2 0x731 PUSH2 0x6D8 JUMP JUMPDEST JUMPDEST POP SWAP2 SWAP1 POP JUMP JUMPDEST PUSH1 0x0 DUP2 SWAP1 POP DUP2 PUSH1 0x0 MSTORE PUSH1 0x20 PUSH1 0x0 KECCAK256 SWAP1 POP SWAP2 SWAP1 POP JUMP JUMPDEST PUSH1 0x0 DUP2 SLOAD PUSH2 0x75A DUP2 PUSH2 0x707 JUMP JUMPDEST PUSH2 0x764 DUP2 DUP7 PUSH2 0x685 JUMP JUMPDEST SWAP5 POP PUSH1 0x1 DUP3 AND PUSH1 0x0 DUP2 EQ PUSH2 0x77F JUMPI PUSH1 0x1 DUP2 EQ PUSH2 0x790 JUMPI PUSH2 0x7C3 JUMP JUMPDEST PUSH1 0xFF NOT DUP4 AND DUP7 MSTORE DUP2 DUP7 ADD SWAP4 POP PUSH2 0x7C3 JUMP JUMPDEST PUSH2 0x799 DUP6 PUSH2 0x738 JUMP JUMPDEST PUSH1 0x0 JUMPDEST DUP4 DUP2 LT ISZERO PUSH2 0x7BB JUMPI DUP2 SLOAD DUP2 DUP10 ADD MSTORE PUSH1 0x1 DUP3 ADD SWAP2 POP PUSH1 0x20 DUP2 ADD SWAP1 POP PUSH2 0x79C JUMP JUMPDEST DUP4 DUP9 ADD SWAP6 POP POP POP JUMPDEST POP POP POP SWAP3 SWAP2 POP POP JUMP JUMPDEST PUSH1 0x0 PUSH2 0x7D8 DUP3 DUP5 PUSH2 0x74D JUMP JUMPDEST SWAP2 POP DUP2 SWAP1 POP SWAP3 SWAP2 POP POP JUMP JUMPDEST PUSH1 0x0 DUP2 SLOAD PUSH2 0x7F0 DUP2 PUSH2 0x707 JUMP JUMPDEST PUSH2 0x7FA DUP2 DUP7 PUSH2 0x619 JUMP JUMPDEST SWAP5 POP PUSH1 0x1 DUP3 AND PUSH1 0x0 DUP2 EQ PUSH2 0x815 JUMPI PUSH1 0x1 DUP2 EQ PUSH2 0x827 JUMPI PUSH2 0x85A JUMP JUMPDEST PUSH1 0xFF NOT DUP4 AND DUP7 MSTORE PUSH1 0x20 DUP7 ADD SWAP4 POP PUSH2 0x85A JUMP JUMPDEST PUSH2 0x830 DUP6 PUSH2 0x738 JUMP JUMPDEST PUSH1 0x0 JUMPDEST DUP4 DUP2 LT ISZERO PUSH2 0x852 JUMPI DUP2 SLOAD DUP2 DUP10 ADD MSTORE PUSH1 0x1 DUP3 ADD SWAP2 POP PUSH1 0x20 DUP2 ADD SWAP1 POP PUSH2 0x833 JUMP JUMPDEST DUP1 DUP9 ADD SWAP6 POP POP POP JUMPDEST POP POP POP SWAP3 SWAP2 POP POP JUMP JUMPDEST PUSH1 0x0 PUSH1 0x20 DUP3 ADD SWAP1 POP DUP2 DUP2 SUB PUSH1 0x0 DUP4 ADD MSTORE PUSH2 0x87D DUP2 DUP5 PUSH2 0x7E3 JUMP JUMPDEST SWAP1 POP SWAP3 SWAP2 POP POP JUMP JUMPDEST PUSH1 0x0 DUP2 SWAP1 POP SWAP3 SWAP2 POP POP JUMP JUMPDEST PUSH1 0x0 DUP2 SWAP1 POP DUP2 PUSH1 0x0 MSTORE PUSH1 0x20 PUSH1 0x0 KECCAK256 SWAP1 POP SWAP2 SWAP1 POP JUMP JUMPDEST PUSH1 0x0 DUP2 SLOAD PUSH2 0x8B2 DUP2 PUSH2 0x707 JUMP JUMPDEST PUSH2 0x8BC DUP2 DUP7 PUSH2 0x885 JUMP JUMPDEST SWAP5 POP PUSH1 0x1 DUP3 AND PUSH1 0x0 DUP2 EQ PUSH2 0x8D7 JUMPI PUSH1 0x1 DUP2 EQ PUSH2 0x8E8 JUMPI PUSH2 0x91B JUMP JUMPDEST PUSH1 0xFF NOT DUP4 AND DUP7 MSTORE DUP2 DUP7 ADD SWAP4 POP PUSH2 0x91B JUMP JUMPDEST PUSH2 0x8F1 DUP6 PUSH2 0x890 JUMP JUMPDEST PUSH1 0x0 JUMPDEST DUP4 DUP2 LT ISZERO PUSH2 0x913 JUMPI DUP2 SLOAD DUP2 DUP10 ADD MSTORE PUSH1 0x1 DUP3 ADD SWAP2 POP PUSH1 0x20 DUP2 ADD SWAP1 POP PUSH2 0x8F4 JUMP JUMPDEST DUP4 DUP9 ADD SWAP6 POP POP POP JUMPDEST POP POP POP SWAP3 SWAP2 POP POP JUMP JUMPDEST PUSH1 0x0 PUSH2 0x930 DUP3 DUP5 PUSH2 0x8A5 JUMP JUMPDEST SWAP2 POP DUP2 SWAP1 POP SWAP3 SWAP2 POP POP JUMP INVALID LOG2 PUSH5 0x6970667358 0x22 SLT KECCAK256 0xCE 0xA9 0x27 0xC 0xE6 0x5F PUSH16 0x849920D002482AEC37CF987C1F18E10D 0x2E 0x24 SWAP4 ADD PUSH5 0x7F91F0E464 PUSH20 0x6F6C634300080E00330000000000000000000000 "
				},
				"gasEstimates": {
					"creation": {
						"codeDepositCost": "483400",
						"executionCost": "infinite",
						"totalCost": "infinite"
					},
					"external": {
						"compareTwoStrings(string)": "infinite",
						"doBytesEqaulString()": "infinite",
						"myBytes()": "infinite",
						"setString(string)": "infinite",
						"someString()": "infinite"
					}
				},
				"methodIdentifiers": {
					"compareTwoStrings(string)": "5ce25353",
					"doBytesEqaulString()": "b6e7883b",
					"myBytes()": "712f4602",
					"setString(string)": "7fcaf666",
					"someString()": "e7a96f6d"
				}
			},
			"storageLayout": {
				"storage": [
					{
						"astId": 4,
						"contract": "contracts/basicSyntax/exampleStrings.sol:ExampleString",
						"label": "someString",
						"offset": 0,
						"slot": "0",
						"type": "t_string_storage"
					},
					{
						"astId": 7,
						"contract": "contracts/basicSyntax/exampleStrings.sol:ExampleString",
						"label": "myBytes",
						"offset": 0,
						"slot": "1",
						"type": "t_bytes_storage"
					}
				],
				"types": {
					"t_bytes_storage": {
						"encoding": "bytes",
						"label": "bytes",
						"numberOfBytes": "32"
					},
					"t_string_storage": {
						"encoding": "bytes",
						"label": "string",
						"numberOfBytes": "32"
					}
				}
			},
			"userdoc": {
				"kind": "user",
				"methods": {},
				"version": 1
			}
		}
	}
}