{
	"contracts/basicSyntax/exampleInt.sol": {
		"ExampleInt": {
			"abi": [
				{
					"inputs": [
						{
							"internalType": "bool",
							"name": "toIncrement",
							"type": "bool"
						}
					],
					"name": "changeIntVal",
					"outputs": [],
					"stateMutability": "nonpayable",
					"type": "function"
				},
				{
					"inputs": [],
					"name": "decrementUint8",
					"outputs": [],
					"stateMutability": "nonpayable",
					"type": "function"
				},
				{
					"inputs": [],
					"name": "foo",
					"outputs": [
						{
							"internalType": "uint256",
							"name": "",
							"type": "uint256"
						}
					],
					"stateMutability": "view",
					"type": "function"
				},
				{
					"inputs": [],
					"name": "incrementUint8",
					"outputs": [],
					"stateMutability": "nonpayable",
					"type": "function"
				},
				{
					"inputs": [],
					"name": "myInt",
					"outputs": [
						{
							"internalType": "int256",
							"name": "",
							"type": "int256"
						}
					],
					"stateMutability": "view",
					"type": "function"
				},
				{
					"inputs": [],
					"name": "myUint8",
					"outputs": [
						{
							"internalType": "uint8",
							"name": "",
							"type": "uint8"
						}
					],
					"stateMutability": "view",
					"type": "function"
				},
				{
					"inputs": [
						{
							"internalType": "uint256",
							"name": "_newVal",
							"type": "uint256"
						}
					],
					"name": "setUint",
					"outputs": [],
					"stateMutability": "nonpayable",
					"type": "function"
				}
			],
			"devdoc": {
				"kind": "dev",
				"methods": {},
				"version": 1
			},
			"evm": {
				"assembly": "    /* \"contracts/basicSyntax/exampleInt.sol\":61:729  contract ExampleInt {... */\n  mstore(0x40, 0x80)\n  callvalue\n  dup1\n  iszero\n  tag_1\n  jumpi\n  0x00\n  dup1\n  revert\ntag_1:\n  pop\n  dataSize(sub_0)\n  dup1\n  dataOffset(sub_0)\n  0x00\n  codecopy\n  0x00\n  return\nstop\n\nsub_0: assembly {\n        /* \"contracts/basicSyntax/exampleInt.sol\":61:729  contract ExampleInt {... */\n      mstore(0x40, 0x80)\n      callvalue\n      dup1\n      iszero\n      tag_1\n      jumpi\n      0x00\n      dup1\n      revert\n    tag_1:\n      pop\n      jumpi(tag_2, lt(calldatasize, 0x04))\n      shr(0xe0, calldataload(0x00))\n      dup1\n      0xc26e93fd\n      gt\n      tag_10\n      jumpi\n      dup1\n      0xc26e93fd\n      eq\n      tag_6\n      jumpi\n      dup1\n      0xc2985578\n      eq\n      tag_7\n      jumpi\n      dup1\n      0xe2a4b2af\n      eq\n      tag_8\n      jumpi\n      dup1\n      0xe62e0635\n      eq\n      tag_9\n      jumpi\n      jump(tag_2)\n    tag_10:\n      dup1\n      0x2cb777a6\n      eq\n      tag_3\n      jumpi\n      dup1\n      0x4ef65c3b\n      eq\n      tag_4\n      jumpi\n      dup1\n      0x84ea3606\n      eq\n      tag_5\n      jumpi\n    tag_2:\n      0x00\n      dup1\n      revert\n        /* \"contracts/basicSyntax/exampleInt.sol\":143:159  int public myInt */\n    tag_3:\n      tag_11\n      tag_12\n      jump\t// in\n    tag_11:\n      mload(0x40)\n      tag_13\n      swap2\n      swap1\n      tag_14\n      jump\t// in\n    tag_13:\n      mload(0x40)\n      dup1\n      swap2\n      sub\n      swap1\n      return\n        /* \"contracts/basicSyntax/exampleInt.sol\":480:550  function setUint(uint _newVal) public {... */\n    tag_4:\n      tag_15\n      0x04\n      dup1\n      calldatasize\n      sub\n      dup2\n      add\n      swap1\n      tag_16\n      swap2\n      swap1\n      tag_17\n      jump\t// in\n    tag_16:\n      tag_18\n      jump\t// in\n    tag_15:\n      stop\n        /* \"contracts/basicSyntax/exampleInt.sol\":558:619  function incrementUint8() public {... */\n    tag_5:\n      tag_19\n      tag_20\n      jump\t// in\n    tag_19:\n      stop\n        /* \"contracts/basicSyntax/exampleInt.sol\":301:474  function changeIntVal(bool toIncrement) public{... */\n    tag_6:\n      tag_21\n      0x04\n      dup1\n      calldatasize\n      sub\n      dup2\n      add\n      swap1\n      tag_22\n      swap2\n      swap1\n      tag_23\n      jump\t// in\n    tag_22:\n      tag_24\n      jump\t// in\n    tag_21:\n      stop\n        /* \"contracts/basicSyntax/exampleInt.sol\":90:105  uint public foo */\n    tag_7:\n      tag_25\n      tag_26\n      jump\t// in\n    tag_25:\n      mload(0x40)\n      tag_27\n      swap2\n      swap1\n      tag_28\n      jump\t// in\n    tag_27:\n      mload(0x40)\n      dup1\n      swap2\n      sub\n      swap1\n      return\n        /* \"contracts/basicSyntax/exampleInt.sol\":114:134  uint8 public myUint8 */\n    tag_8:\n      tag_29\n      tag_30\n      jump\t// in\n    tag_29:\n      mload(0x40)\n      tag_31\n      swap2\n      swap1\n      tag_32\n      jump\t// in\n    tag_31:\n      mload(0x40)\n      dup1\n      swap2\n      sub\n      swap1\n      return\n        /* \"contracts/basicSyntax/exampleInt.sol\":627:726  function decrementUint8() public {... */\n    tag_9:\n      tag_33\n      tag_34\n      jump\t// in\n    tag_33:\n      stop\n        /* \"contracts/basicSyntax/exampleInt.sol\":143:159  int public myInt */\n    tag_12:\n      sload(0x02)\n      dup2\n      jump\t// out\n        /* \"contracts/basicSyntax/exampleInt.sol\":480:550  function setUint(uint _newVal) public {... */\n    tag_18:\n        /* \"contracts/basicSyntax/exampleInt.sol\":535:542  _newVal */\n      dup1\n        /* \"contracts/basicSyntax/exampleInt.sol\":529:532  foo */\n      0x00\n        /* \"contracts/basicSyntax/exampleInt.sol\":529:542  foo = _newVal */\n      dup2\n      swap1\n      sstore\n      pop\n        /* \"contracts/basicSyntax/exampleInt.sol\":480:550  function setUint(uint _newVal) public {... */\n      pop\n      jump\t// out\n        /* \"contracts/basicSyntax/exampleInt.sol\":558:619  function incrementUint8() public {... */\n    tag_20:\n        /* \"contracts/basicSyntax/exampleInt.sol\":602:609  myUint8 */\n      0x01\n      0x00\n        /* \"contracts/basicSyntax/exampleInt.sol\":602:611  myUint8++ */\n      dup2\n      dup2\n      swap1\n      sload\n      swap1\n      0x0100\n      exp\n      swap1\n      div\n      0xff\n      and\n      dup1\n      swap3\n      swap2\n      swap1\n      tag_37\n      swap1\n      tag_38\n      jump\t// in\n    tag_37:\n      swap2\n      swap1\n      0x0100\n      exp\n      dup2\n      sload\n      dup2\n      0xff\n      mul\n      not\n      and\n      swap1\n      dup4\n      0xff\n      and\n      mul\n      or\n      swap1\n      sstore\n      pop\n      pop\n        /* \"contracts/basicSyntax/exampleInt.sol\":558:619  function incrementUint8() public {... */\n      jump\t// out\n        /* \"contracts/basicSyntax/exampleInt.sol\":301:474  function changeIntVal(bool toIncrement) public{... */\n    tag_24:\n        /* \"contracts/basicSyntax/exampleInt.sol\":376:380  true */\n      0x01\n        /* \"contracts/basicSyntax/exampleInt.sol\":361:380  toIncrement == true */\n      iszero\n      iszero\n        /* \"contracts/basicSyntax/exampleInt.sol\":361:372  toIncrement */\n      dup2\n        /* \"contracts/basicSyntax/exampleInt.sol\":361:380  toIncrement == true */\n      iszero\n      iszero\n      sub\n        /* \"contracts/basicSyntax/exampleInt.sol\":358:467  if(toIncrement == true){... */\n      tag_40\n      jumpi\n        /* \"contracts/basicSyntax/exampleInt.sol\":396:410  incrementInt() */\n      tag_41\n        /* \"contracts/basicSyntax/exampleInt.sol\":396:408  incrementInt */\n      tag_42\n        /* \"contracts/basicSyntax/exampleInt.sol\":396:410  incrementInt() */\n      jump\t// in\n    tag_41:\n        /* \"contracts/basicSyntax/exampleInt.sol\":358:467  if(toIncrement == true){... */\n      jump(tag_43)\n    tag_40:\n        /* \"contracts/basicSyntax/exampleInt.sol\":441:455  decrementInt() */\n      tag_44\n        /* \"contracts/basicSyntax/exampleInt.sol\":441:453  decrementInt */\n      tag_45\n        /* \"contracts/basicSyntax/exampleInt.sol\":441:455  decrementInt() */\n      jump\t// in\n    tag_44:\n        /* \"contracts/basicSyntax/exampleInt.sol\":358:467  if(toIncrement == true){... */\n    tag_43:\n        /* \"contracts/basicSyntax/exampleInt.sol\":301:474  function changeIntVal(bool toIncrement) public{... */\n      pop\n      jump\t// out\n        /* \"contracts/basicSyntax/exampleInt.sol\":90:105  uint public foo */\n    tag_26:\n      sload(0x00)\n      dup2\n      jump\t// out\n        /* \"contracts/basicSyntax/exampleInt.sol\":114:134  uint8 public myUint8 */\n    tag_30:\n      0x01\n      0x00\n      swap1\n      sload\n      swap1\n      0x0100\n      exp\n      swap1\n      div\n      0xff\n      and\n      dup2\n      jump\t// out\n        /* \"contracts/basicSyntax/exampleInt.sol\":627:726  function decrementUint8() public {... */\n    tag_34:\n        /* \"contracts/basicSyntax/exampleInt.sol\":696:703  myUint8 */\n      0x01\n      0x00\n        /* \"contracts/basicSyntax/exampleInt.sol\":696:705  myUint8-- */\n      dup2\n      dup2\n      swap1\n      sload\n      swap1\n      0x0100\n      exp\n      swap1\n      div\n      0xff\n      and\n      dup1\n      swap3\n      swap2\n      swap1\n      0x01\n      swap1\n      sub\n      swap2\n      swap1\n      0x0100\n      exp\n      dup2\n      sload\n      dup2\n      0xff\n      mul\n      not\n      and\n      swap1\n      dup4\n      0xff\n      and\n      mul\n      or\n      swap1\n      sstore\n      pop\n      pop\n        /* \"contracts/basicSyntax/exampleInt.sol\":627:726  function decrementUint8() public {... */\n      jump\t// out\n        /* \"contracts/basicSyntax/exampleInt.sol\":168:227  function incrementInt() private  {... */\n    tag_42:\n        /* \"contracts/basicSyntax/exampleInt.sol\":212:217  myInt */\n      0x02\n      0x00\n        /* \"contracts/basicSyntax/exampleInt.sol\":212:219  myInt++ */\n      dup2\n      sload\n      dup1\n      swap3\n      swap2\n      swap1\n      tag_48\n      swap1\n      tag_49\n      jump\t// in\n    tag_48:\n      swap2\n      swap1\n      pop\n      sstore\n      pop\n        /* \"contracts/basicSyntax/exampleInt.sol\":168:227  function incrementInt() private  {... */\n      jump\t// out\n        /* \"contracts/basicSyntax/exampleInt.sol\":235:293  function decrementInt() private {... */\n    tag_45:\n        /* \"contracts/basicSyntax/exampleInt.sol\":278:283  myInt */\n      0x02\n      0x00\n        /* \"contracts/basicSyntax/exampleInt.sol\":278:285  myInt-- */\n      dup2\n      sload\n      dup1\n      swap3\n      swap2\n      swap1\n      tag_51\n      swap1\n      tag_52\n      jump\t// in\n    tag_51:\n      swap2\n      swap1\n      pop\n      sstore\n      pop\n        /* \"contracts/basicSyntax/exampleInt.sol\":235:293  function decrementInt() private {... */\n      jump\t// out\n        /* \"#utility.yul\":7:83   */\n    tag_53:\n        /* \"#utility.yul\":43:50   */\n      0x00\n        /* \"#utility.yul\":72:77   */\n      dup2\n        /* \"#utility.yul\":61:77   */\n      swap1\n      pop\n        /* \"#utility.yul\":7:83   */\n      swap2\n      swap1\n      pop\n      jump\t// out\n        /* \"#utility.yul\":89:204   */\n    tag_54:\n        /* \"#utility.yul\":174:197   */\n      tag_71\n        /* \"#utility.yul\":191:196   */\n      dup2\n        /* \"#utility.yul\":174:197   */\n      tag_53\n      jump\t// in\n    tag_71:\n        /* \"#utility.yul\":169:172   */\n      dup3\n        /* \"#utility.yul\":162:198   */\n      mstore\n        /* \"#utility.yul\":89:204   */\n      pop\n      pop\n      jump\t// out\n        /* \"#utility.yul\":210:428   */\n    tag_14:\n        /* \"#utility.yul\":301:305   */\n      0x00\n        /* \"#utility.yul\":339:341   */\n      0x20\n        /* \"#utility.yul\":328:337   */\n      dup3\n        /* \"#utility.yul\":324:342   */\n      add\n        /* \"#utility.yul\":316:342   */\n      swap1\n      pop\n        /* \"#utility.yul\":352:421   */\n      tag_73\n        /* \"#utility.yul\":418:419   */\n      0x00\n        /* \"#utility.yul\":407:416   */\n      dup4\n        /* \"#utility.yul\":403:420   */\n      add\n        /* \"#utility.yul\":394:400   */\n      dup5\n        /* \"#utility.yul\":352:421   */\n      tag_54\n      jump\t// in\n    tag_73:\n        /* \"#utility.yul\":210:428   */\n      swap3\n      swap2\n      pop\n      pop\n      jump\t// out\n        /* \"#utility.yul\":515:632   */\n    tag_56:\n        /* \"#utility.yul\":624:625   */\n      0x00\n        /* \"#utility.yul\":621:622   */\n      dup1\n        /* \"#utility.yul\":614:626   */\n      revert\n        /* \"#utility.yul\":761:838   */\n    tag_58:\n        /* \"#utility.yul\":798:805   */\n      0x00\n        /* \"#utility.yul\":827:832   */\n      dup2\n        /* \"#utility.yul\":816:832   */\n      swap1\n      pop\n        /* \"#utility.yul\":761:838   */\n      swap2\n      swap1\n      pop\n      jump\t// out\n        /* \"#utility.yul\":844:966   */\n    tag_59:\n        /* \"#utility.yul\":917:941   */\n      tag_79\n        /* \"#utility.yul\":935:940   */\n      dup2\n        /* \"#utility.yul\":917:941   */\n      tag_58\n      jump\t// in\n    tag_79:\n        /* \"#utility.yul\":910:915   */\n      dup2\n        /* \"#utility.yul\":907:942   */\n      eq\n        /* \"#utility.yul\":897:960   */\n      tag_80\n      jumpi\n        /* \"#utility.yul\":956:957   */\n      0x00\n        /* \"#utility.yul\":953:954   */\n      dup1\n        /* \"#utility.yul\":946:958   */\n      revert\n        /* \"#utility.yul\":897:960   */\n    tag_80:\n        /* \"#utility.yul\":844:966   */\n      pop\n      jump\t// out\n        /* \"#utility.yul\":972:1111   */\n    tag_60:\n        /* \"#utility.yul\":1018:1023   */\n      0x00\n        /* \"#utility.yul\":1056:1062   */\n      dup2\n        /* \"#utility.yul\":1043:1063   */\n      calldataload\n        /* \"#utility.yul\":1034:1063   */\n      swap1\n      pop\n        /* \"#utility.yul\":1072:1105   */\n      tag_82\n        /* \"#utility.yul\":1099:1104   */\n      dup2\n        /* \"#utility.yul\":1072:1105   */\n      tag_59\n      jump\t// in\n    tag_82:\n        /* \"#utility.yul\":972:1111   */\n      swap3\n      swap2\n      pop\n      pop\n      jump\t// out\n        /* \"#utility.yul\":1117:1446   */\n    tag_17:\n        /* \"#utility.yul\":1176:1182   */\n      0x00\n        /* \"#utility.yul\":1225:1227   */\n      0x20\n        /* \"#utility.yul\":1213:1222   */\n      dup3\n        /* \"#utility.yul\":1204:1211   */\n      dup5\n        /* \"#utility.yul\":1200:1223   */\n      sub\n        /* \"#utility.yul\":1196:1228   */\n      slt\n        /* \"#utility.yul\":1193:1312   */\n      iszero\n      tag_84\n      jumpi\n        /* \"#utility.yul\":1231:1310   */\n      tag_85\n      tag_56\n      jump\t// in\n    tag_85:\n        /* \"#utility.yul\":1193:1312   */\n    tag_84:\n        /* \"#utility.yul\":1351:1352   */\n      0x00\n        /* \"#utility.yul\":1376:1429   */\n      tag_86\n        /* \"#utility.yul\":1421:1428   */\n      dup5\n        /* \"#utility.yul\":1412:1418   */\n      dup3\n        /* \"#utility.yul\":1401:1410   */\n      dup6\n        /* \"#utility.yul\":1397:1419   */\n      add\n        /* \"#utility.yul\":1376:1429   */\n      tag_60\n      jump\t// in\n    tag_86:\n        /* \"#utility.yul\":1366:1429   */\n      swap2\n      pop\n        /* \"#utility.yul\":1322:1439   */\n      pop\n        /* \"#utility.yul\":1117:1446   */\n      swap3\n      swap2\n      pop\n      pop\n      jump\t// out\n        /* \"#utility.yul\":1452:1542   */\n    tag_61:\n        /* \"#utility.yul\":1486:1493   */\n      0x00\n        /* \"#utility.yul\":1529:1534   */\n      dup2\n        /* \"#utility.yul\":1522:1535   */\n      iszero\n        /* \"#utility.yul\":1515:1536   */\n      iszero\n        /* \"#utility.yul\":1504:1536   */\n      swap1\n      pop\n        /* \"#utility.yul\":1452:1542   */\n      swap2\n      swap1\n      pop\n      jump\t// out\n        /* \"#utility.yul\":1548:1664   */\n    tag_62:\n        /* \"#utility.yul\":1618:1639   */\n      tag_89\n        /* \"#utility.yul\":1633:1638   */\n      dup2\n        /* \"#utility.yul\":1618:1639   */\n      tag_61\n      jump\t// in\n    tag_89:\n        /* \"#utility.yul\":1611:1616   */\n      dup2\n        /* \"#utility.yul\":1608:1640   */\n      eq\n        /* \"#utility.yul\":1598:1658   */\n      tag_90\n      jumpi\n        /* \"#utility.yul\":1654:1655   */\n      0x00\n        /* \"#utility.yul\":1651:1652   */\n      dup1\n        /* \"#utility.yul\":1644:1656   */\n      revert\n        /* \"#utility.yul\":1598:1658   */\n    tag_90:\n        /* \"#utility.yul\":1548:1664   */\n      pop\n      jump\t// out\n        /* \"#utility.yul\":1670:1803   */\n    tag_63:\n        /* \"#utility.yul\":1713:1718   */\n      0x00\n        /* \"#utility.yul\":1751:1757   */\n      dup2\n        /* \"#utility.yul\":1738:1758   */\n      calldataload\n        /* \"#utility.yul\":1729:1758   */\n      swap1\n      pop\n        /* \"#utility.yul\":1767:1797   */\n      tag_92\n        /* \"#utility.yul\":1791:1796   */\n      dup2\n        /* \"#utility.yul\":1767:1797   */\n      tag_62\n      jump\t// in\n    tag_92:\n        /* \"#utility.yul\":1670:1803   */\n      swap3\n      swap2\n      pop\n      pop\n      jump\t// out\n        /* \"#utility.yul\":1809:2132   */\n    tag_23:\n        /* \"#utility.yul\":1865:1871   */\n      0x00\n        /* \"#utility.yul\":1914:1916   */\n      0x20\n        /* \"#utility.yul\":1902:1911   */\n      dup3\n        /* \"#utility.yul\":1893:1900   */\n      dup5\n        /* \"#utility.yul\":1889:1912   */\n      sub\n        /* \"#utility.yul\":1885:1917   */\n      slt\n        /* \"#utility.yul\":1882:2001   */\n      iszero\n      tag_94\n      jumpi\n        /* \"#utility.yul\":1920:1999   */\n      tag_95\n      tag_56\n      jump\t// in\n    tag_95:\n        /* \"#utility.yul\":1882:2001   */\n    tag_94:\n        /* \"#utility.yul\":2040:2041   */\n      0x00\n        /* \"#utility.yul\":2065:2115   */\n      tag_96\n        /* \"#utility.yul\":2107:2114   */\n      dup5\n        /* \"#utility.yul\":2098:2104   */\n      dup3\n        /* \"#utility.yul\":2087:2096   */\n      dup6\n        /* \"#utility.yul\":2083:2105   */\n      add\n        /* \"#utility.yul\":2065:2115   */\n      tag_63\n      jump\t// in\n    tag_96:\n        /* \"#utility.yul\":2055:2115   */\n      swap2\n      pop\n        /* \"#utility.yul\":2011:2125   */\n      pop\n        /* \"#utility.yul\":1809:2132   */\n      swap3\n      swap2\n      pop\n      pop\n      jump\t// out\n        /* \"#utility.yul\":2138:2256   */\n    tag_64:\n        /* \"#utility.yul\":2225:2249   */\n      tag_98\n        /* \"#utility.yul\":2243:2248   */\n      dup2\n        /* \"#utility.yul\":2225:2249   */\n      tag_58\n      jump\t// in\n    tag_98:\n        /* \"#utility.yul\":2220:2223   */\n      dup3\n        /* \"#utility.yul\":2213:2250   */\n      mstore\n        /* \"#utility.yul\":2138:2256   */\n      pop\n      pop\n      jump\t// out\n        /* \"#utility.yul\":2262:2484   */\n    tag_28:\n        /* \"#utility.yul\":2355:2359   */\n      0x00\n        /* \"#utility.yul\":2393:2395   */\n      0x20\n        /* \"#utility.yul\":2382:2391   */\n      dup3\n        /* \"#utility.yul\":2378:2396   */\n      add\n        /* \"#utility.yul\":2370:2396   */\n      swap1\n      pop\n        /* \"#utility.yul\":2406:2477   */\n      tag_100\n        /* \"#utility.yul\":2474:2475   */\n      0x00\n        /* \"#utility.yul\":2463:2472   */\n      dup4\n        /* \"#utility.yul\":2459:2476   */\n      add\n        /* \"#utility.yul\":2450:2456   */\n      dup5\n        /* \"#utility.yul\":2406:2477   */\n      tag_64\n      jump\t// in\n    tag_100:\n        /* \"#utility.yul\":2262:2484   */\n      swap3\n      swap2\n      pop\n      pop\n      jump\t// out\n        /* \"#utility.yul\":2490:2576   */\n    tag_65:\n        /* \"#utility.yul\":2525:2532   */\n      0x00\n        /* \"#utility.yul\":2565:2569   */\n      0xff\n        /* \"#utility.yul\":2558:2563   */\n      dup3\n        /* \"#utility.yul\":2554:2570   */\n      and\n        /* \"#utility.yul\":2543:2570   */\n      swap1\n      pop\n        /* \"#utility.yul\":2490:2576   */\n      swap2\n      swap1\n      pop\n      jump\t// out\n        /* \"#utility.yul\":2582:2694   */\n    tag_66:\n        /* \"#utility.yul\":2665:2687   */\n      tag_103\n        /* \"#utility.yul\":2681:2686   */\n      dup2\n        /* \"#utility.yul\":2665:2687   */\n      tag_65\n      jump\t// in\n    tag_103:\n        /* \"#utility.yul\":2660:2663   */\n      dup3\n        /* \"#utility.yul\":2653:2688   */\n      mstore\n        /* \"#utility.yul\":2582:2694   */\n      pop\n      pop\n      jump\t// out\n        /* \"#utility.yul\":2700:2914   */\n    tag_32:\n        /* \"#utility.yul\":2789:2793   */\n      0x00\n        /* \"#utility.yul\":2827:2829   */\n      0x20\n        /* \"#utility.yul\":2816:2825   */\n      dup3\n        /* \"#utility.yul\":2812:2830   */\n      add\n        /* \"#utility.yul\":2804:2830   */\n      swap1\n      pop\n        /* \"#utility.yul\":2840:2907   */\n      tag_105\n        /* \"#utility.yul\":2904:2905   */\n      0x00\n        /* \"#utility.yul\":2893:2902   */\n      dup4\n        /* \"#utility.yul\":2889:2906   */\n      add\n        /* \"#utility.yul\":2880:2886   */\n      dup5\n        /* \"#utility.yul\":2840:2907   */\n      tag_66\n      jump\t// in\n    tag_105:\n        /* \"#utility.yul\":2700:2914   */\n      swap3\n      swap2\n      pop\n      pop\n      jump\t// out\n        /* \"#utility.yul\":2920:3100   */\n    tag_67:\n        /* \"#utility.yul\":2968:3045   */\n      0x4e487b7100000000000000000000000000000000000000000000000000000000\n        /* \"#utility.yul\":2965:2966   */\n      0x00\n        /* \"#utility.yul\":2958:3046   */\n      mstore\n        /* \"#utility.yul\":3065:3069   */\n      0x11\n        /* \"#utility.yul\":3062:3063   */\n      0x04\n        /* \"#utility.yul\":3055:3070   */\n      mstore\n        /* \"#utility.yul\":3089:3093   */\n      0x24\n        /* \"#utility.yul\":3086:3087   */\n      0x00\n        /* \"#utility.yul\":3079:3094   */\n      revert\n        /* \"#utility.yul\":3106:3273   */\n    tag_38:\n        /* \"#utility.yul\":3143:3146   */\n      0x00\n        /* \"#utility.yul\":3166:3188   */\n      tag_108\n        /* \"#utility.yul\":3182:3187   */\n      dup3\n        /* \"#utility.yul\":3166:3188   */\n      tag_65\n      jump\t// in\n    tag_108:\n        /* \"#utility.yul\":3157:3188   */\n      swap2\n      pop\n        /* \"#utility.yul\":3210:3214   */\n      0xff\n        /* \"#utility.yul\":3203:3208   */\n      dup3\n        /* \"#utility.yul\":3200:3215   */\n      sub\n        /* \"#utility.yul\":3197:3238   */\n      tag_109\n      jumpi\n        /* \"#utility.yul\":3218:3236   */\n      tag_110\n      tag_67\n      jump\t// in\n    tag_110:\n        /* \"#utility.yul\":3197:3238   */\n    tag_109:\n        /* \"#utility.yul\":3265:3266   */\n      0x01\n        /* \"#utility.yul\":3258:3263   */\n      dup3\n        /* \"#utility.yul\":3254:3267   */\n      add\n        /* \"#utility.yul\":3247:3267   */\n      swap1\n      pop\n        /* \"#utility.yul\":3106:3273   */\n      swap2\n      swap1\n      pop\n      jump\t// out\n        /* \"#utility.yul\":3279:3510   */\n    tag_49:\n        /* \"#utility.yul\":3317:3320   */\n      0x00\n        /* \"#utility.yul\":3340:3363   */\n      tag_112\n        /* \"#utility.yul\":3357:3362   */\n      dup3\n        /* \"#utility.yul\":3340:3363   */\n      tag_53\n      jump\t// in\n    tag_112:\n        /* \"#utility.yul\":3331:3363   */\n      swap2\n      pop\n        /* \"#utility.yul\":3385:3451   */\n      0x7fffffffffffffffffffffffffffffffffffffffffffffffffffffffffffffff\n        /* \"#utility.yul\":3378:3383   */\n      dup3\n        /* \"#utility.yul\":3375:3452   */\n      sub\n        /* \"#utility.yul\":3372:3475   */\n      tag_113\n      jumpi\n        /* \"#utility.yul\":3455:3473   */\n      tag_114\n      tag_67\n      jump\t// in\n    tag_114:\n        /* \"#utility.yul\":3372:3475   */\n    tag_113:\n        /* \"#utility.yul\":3502:3503   */\n      0x01\n        /* \"#utility.yul\":3495:3500   */\n      dup3\n        /* \"#utility.yul\":3491:3504   */\n      add\n        /* \"#utility.yul\":3484:3504   */\n      swap1\n      pop\n        /* \"#utility.yul\":3279:3510   */\n      swap2\n      swap1\n      pop\n      jump\t// out\n        /* \"#utility.yul\":3516:3747   */\n    tag_52:\n        /* \"#utility.yul\":3554:3557   */\n      0x00\n        /* \"#utility.yul\":3577:3600   */\n      tag_116\n        /* \"#utility.yul\":3594:3599   */\n      dup3\n        /* \"#utility.yul\":3577:3600   */\n      tag_53\n      jump\t// in\n    tag_116:\n        /* \"#utility.yul\":3568:3600   */\n      swap2\n      pop\n        /* \"#utility.yul\":3622:3688   */\n      0x8000000000000000000000000000000000000000000000000000000000000000\n        /* \"#utility.yul\":3615:3620   */\n      dup3\n        /* \"#utility.yul\":3612:3689   */\n      sub\n        /* \"#utility.yul\":3609:3712   */\n      tag_117\n      jumpi\n        /* \"#utility.yul\":3692:3710   */\n      tag_118\n      tag_67\n      jump\t// in\n    tag_118:\n        /* \"#utility.yul\":3609:3712   */\n    tag_117:\n        /* \"#utility.yul\":3739:3740   */\n      0x01\n        /* \"#utility.yul\":3732:3737   */\n      dup3\n        /* \"#utility.yul\":3728:3741   */\n      sub\n        /* \"#utility.yul\":3721:3741   */\n      swap1\n      pop\n        /* \"#utility.yul\":3516:3747   */\n      swap2\n      swap1\n      pop\n      jump\t// out\n\n    auxdata: 0xa2646970667358221220deb05258fb5d7a9688dfbccfac7f561c97af9110db7554238444e550c704aec064736f6c634300080e0033\n}\n",
				"bytecode": {
					"linkReferences": {},
					"object": "608060405234801561001057600080fd5b50610499806100206000396000f3fe608060405234801561001057600080fd5b506004361061007d5760003560e01c8063c26e93fd1161005b578063c26e93fd146100c6578063c2985578146100e2578063e2a4b2af14610100578063e62e06351461011e5761007d565b80632cb777a6146100825780634ef65c3b146100a057806384ea3606146100bc575b600080fd5b61008a610128565b6040516100979190610232565b60405180910390f35b6100ba60048036038101906100b59190610288565b61012e565b005b6100c4610138565b005b6100e060048036038101906100db91906102ed565b610172565b005b6100ea610197565b6040516100f79190610329565b60405180910390f35b61010861019d565b6040516101159190610360565b60405180910390f35b6101266101b0565b005b60025481565b8060008190555050565b6001600081819054906101000a900460ff1680929190610157906103aa565b91906101000a81548160ff021916908360ff16021790555050565b600115158115150361018b576101866101e5565b610194565b6101936101ff565b5b50565b60005481565b600160009054906101000a900460ff1681565b6001600081819054906101000a900460ff16809291906001900391906101000a81548160ff021916908360ff16021790555050565b600260008154809291906101f8906103d3565b9190505550565b600260008154809291906102129061041b565b9190505550565b6000819050919050565b61022c81610219565b82525050565b60006020820190506102476000830184610223565b92915050565b600080fd5b6000819050919050565b61026581610252565b811461027057600080fd5b50565b6000813590506102828161025c565b92915050565b60006020828403121561029e5761029d61024d565b5b60006102ac84828501610273565b91505092915050565b60008115159050919050565b6102ca816102b5565b81146102d557600080fd5b50565b6000813590506102e7816102c1565b92915050565b6000602082840312156103035761030261024d565b5b6000610311848285016102d8565b91505092915050565b61032381610252565b82525050565b600060208201905061033e600083018461031a565b92915050565b600060ff82169050919050565b61035a81610344565b82525050565b60006020820190506103756000830184610351565b92915050565b7f4e487b7100000000000000000000000000000000000000000000000000000000600052601160045260246000fd5b60006103b582610344565b915060ff82036103c8576103c761037b565b5b600182019050919050565b60006103de82610219565b91507f7fffffffffffffffffffffffffffffffffffffffffffffffffffffffffffffff82036104105761040f61037b565b5b600182019050919050565b600061042682610219565b91507f800000000000000000000000000000000000000000000000000000000000000082036104585761045761037b565b5b60018203905091905056fea2646970667358221220deb05258fb5d7a9688dfbccfac7f561c97af9110db7554238444e550c704aec064736f6c634300080e0033",
					"opcodes": "PUSH1 0x80 PUSH1 0x40 MSTORE CALLVALUE DUP1 ISZERO PUSH2 0x10 JUMPI PUSH1 0x0 DUP1 REVERT JUMPDEST POP PUSH2 0x499 DUP1 PUSH2 0x20 PUSH1 0x0 CODECOPY PUSH1 0x0 RETURN INVALID PUSH1 0x80 PUSH1 0x40 MSTORE CALLVALUE DUP1 ISZERO PUSH2 0x10 JUMPI PUSH1 0x0 DUP1 REVERT JUMPDEST POP PUSH1 0x4 CALLDATASIZE LT PUSH2 0x7D JUMPI PUSH1 0x0 CALLDATALOAD PUSH1 0xE0 SHR DUP1 PUSH4 0xC26E93FD GT PUSH2 0x5B JUMPI DUP1 PUSH4 0xC26E93FD EQ PUSH2 0xC6 JUMPI DUP1 PUSH4 0xC2985578 EQ PUSH2 0xE2 JUMPI DUP1 PUSH4 0xE2A4B2AF EQ PUSH2 0x100 JUMPI DUP1 PUSH4 0xE62E0635 EQ PUSH2 0x11E JUMPI PUSH2 0x7D JUMP JUMPDEST DUP1 PUSH4 0x2CB777A6 EQ PUSH2 0x82 JUMPI DUP1 PUSH4 0x4EF65C3B EQ PUSH2 0xA0 JUMPI DUP1 PUSH4 0x84EA3606 EQ PUSH2 0xBC JUMPI JUMPDEST PUSH1 0x0 DUP1 REVERT JUMPDEST PUSH2 0x8A PUSH2 0x128 JUMP JUMPDEST PUSH1 0x40 MLOAD PUSH2 0x97 SWAP2 SWAP1 PUSH2 0x232 JUMP JUMPDEST PUSH1 0x40 MLOAD DUP1 SWAP2 SUB SWAP1 RETURN JUMPDEST PUSH2 0xBA PUSH1 0x4 DUP1 CALLDATASIZE SUB DUP2 ADD SWAP1 PUSH2 0xB5 SWAP2 SWAP1 PUSH2 0x288 JUMP JUMPDEST PUSH2 0x12E JUMP JUMPDEST STOP JUMPDEST PUSH2 0xC4 PUSH2 0x138 JUMP JUMPDEST STOP JUMPDEST PUSH2 0xE0 PUSH1 0x4 DUP1 CALLDATASIZE SUB DUP2 ADD SWAP1 PUSH2 0xDB SWAP2 SWAP1 PUSH2 0x2ED JUMP JUMPDEST PUSH2 0x172 JUMP JUMPDEST STOP JUMPDEST PUSH2 0xEA PUSH2 0x197 JUMP JUMPDEST PUSH1 0x40 MLOAD PUSH2 0xF7 SWAP2 SWAP1 PUSH2 0x329 JUMP JUMPDEST PUSH1 0x40 MLOAD DUP1 SWAP2 SUB SWAP1 RETURN JUMPDEST PUSH2 0x108 PUSH2 0x19D JUMP JUMPDEST PUSH1 0x40 MLOAD PUSH2 0x115 SWAP2 SWAP1 PUSH2 0x360 JUMP JUMPDEST PUSH1 0x40 MLOAD DUP1 SWAP2 SUB SWAP1 RETURN JUMPDEST PUSH2 0x126 PUSH2 0x1B0 JUMP JUMPDEST STOP JUMPDEST PUSH1 0x2 SLOAD DUP2 JUMP JUMPDEST DUP1 PUSH1 0x0 DUP2 SWAP1 SSTORE POP POP JUMP JUMPDEST PUSH1 0x1 PUSH1 0x0 DUP2 DUP2 SWAP1 SLOAD SWAP1 PUSH2 0x100 EXP SWAP1 DIV PUSH1 0xFF AND DUP1 SWAP3 SWAP2 SWAP1 PUSH2 0x157 SWAP1 PUSH2 0x3AA JUMP JUMPDEST SWAP2 SWAP1 PUSH2 0x100 EXP DUP2 SLOAD DUP2 PUSH1 0xFF MUL NOT AND SWAP1 DUP4 PUSH1 0xFF AND MUL OR SWAP1 SSTORE POP POP JUMP JUMPDEST PUSH1 0x1 ISZERO ISZERO DUP2 ISZERO ISZERO SUB PUSH2 0x18B JUMPI PUSH2 0x186 PUSH2 0x1E5 JUMP JUMPDEST PUSH2 0x194 JUMP JUMPDEST PUSH2 0x193 PUSH2 0x1FF JUMP JUMPDEST JUMPDEST POP JUMP JUMPDEST PUSH1 0x0 SLOAD DUP2 JUMP JUMPDEST PUSH1 0x1 PUSH1 0x0 SWAP1 SLOAD SWAP1 PUSH2 0x100 EXP SWAP1 DIV PUSH1 0xFF AND DUP2 JUMP JUMPDEST PUSH1 0x1 PUSH1 0x0 DUP2 DUP2 SWAP1 SLOAD SWAP1 PUSH2 0x100 EXP SWAP1 DIV PUSH1 0xFF AND DUP1 SWAP3 SWAP2 SWAP1 PUSH1 0x1 SWAP1 SUB SWAP2 SWAP1 PUSH2 0x100 EXP DUP2 SLOAD DUP2 PUSH1 0xFF MUL NOT AND SWAP1 DUP4 PUSH1 0xFF AND MUL OR SWAP1 SSTORE POP POP JUMP JUMPDEST PUSH1 0x2 PUSH1 0x0 DUP2 SLOAD DUP1 SWAP3 SWAP2 SWAP1 PUSH2 0x1F8 SWAP1 PUSH2 0x3D3 JUMP JUMPDEST SWAP2 SWAP1 POP SSTORE POP JUMP JUMPDEST PUSH1 0x2 PUSH1 0x0 DUP2 SLOAD DUP1 SWAP3 SWAP2 SWAP1 PUSH2 0x212 SWAP1 PUSH2 0x41B JUMP JUMPDEST SWAP2 SWAP1 POP SSTORE POP JUMP JUMPDEST PUSH1 0x0 DUP2 SWAP1 POP SWAP2 SWAP1 POP JUMP JUMPDEST PUSH2 0x22C DUP2 PUSH2 0x219 JUMP JUMPDEST DUP3 MSTORE POP POP JUMP JUMPDEST PUSH1 0x0 PUSH1 0x20 DUP3 ADD SWAP1 POP PUSH2 0x247 PUSH1 0x0 DUP4 ADD DUP5 PUSH2 0x223 JUMP JUMPDEST SWAP3 SWAP2 POP POP JUMP JUMPDEST PUSH1 0x0 DUP1 REVERT JUMPDEST PUSH1 0x0 DUP2 SWAP1 POP SWAP2 SWAP1 POP JUMP JUMPDEST PUSH2 0x265 DUP2 PUSH2 0x252 JUMP JUMPDEST DUP2 EQ PUSH2 0x270 JUMPI PUSH1 0x0 DUP1 REVERT JUMPDEST POP JUMP JUMPDEST PUSH1 0x0 DUP2 CALLDATALOAD SWAP1 POP PUSH2 0x282 DUP2 PUSH2 0x25C JUMP JUMPDEST SWAP3 SWAP2 POP POP JUMP JUMPDEST PUSH1 0x0 PUSH1 0x20 DUP3 DUP5 SUB SLT ISZERO PUSH2 0x29E JUMPI PUSH2 0x29D PUSH2 0x24D JUMP JUMPDEST JUMPDEST PUSH1 0x0 PUSH2 0x2AC DUP5 DUP3 DUP6 ADD PUSH2 0x273 JUMP JUMPDEST SWAP2 POP POP SWAP3 SWAP2 POP POP JUMP JUMPDEST PUSH1 0x0 DUP2 ISZERO ISZERO SWAP1 POP SWAP2 SWAP1 POP JUMP JUMPDEST PUSH2 0x2CA DUP2 PUSH2 0x2B5 JUMP JUMPDEST DUP2 EQ PUSH2 0x2D5 JUMPI PUSH1 0x0 DUP1 REVERT JUMPDEST POP JUMP JUMPDEST PUSH1 0x0 DUP2 CALLDATALOAD SWAP1 POP PUSH2 0x2E7 DUP2 PUSH2 0x2C1 JUMP JUMPDEST SWAP3 SWAP2 POP POP JUMP JUMPDEST PUSH1 0x0 PUSH1 0x20 DUP3 DUP5 SUB SLT ISZERO PUSH2 0x303 JUMPI PUSH2 0x302 PUSH2 0x24D JUMP JUMPDEST JUMPDEST PUSH1 0x0 PUSH2 0x311 DUP5 DUP3 DUP6 ADD PUSH2 0x2D8 JUMP JUMPDEST SWAP2 POP POP SWAP3 SWAP2 POP POP JUMP JUMPDEST PUSH2 0x323 DUP2 PUSH2 0x252 JUMP JUMPDEST DUP3 MSTORE POP POP JUMP JUMPDEST PUSH1 0x0 PUSH1 0x20 DUP3 ADD SWAP1 POP PUSH2 0x33E PUSH1 0x0 DUP4 ADD DUP5 PUSH2 0x31A JUMP JUMPDEST SWAP3 SWAP2 POP POP JUMP JUMPDEST PUSH1 0x0 PUSH1 0xFF DUP3 AND SWAP1 POP SWAP2 SWAP1 POP JUMP JUMPDEST PUSH2 0x35A DUP2 PUSH2 0x344 JUMP JUMPDEST DUP3 MSTORE POP POP JUMP JUMPDEST PUSH1 0x0 PUSH1 0x20 DUP3 ADD SWAP1 POP PUSH2 0x375 PUSH1 0x0 DUP4 ADD DUP5 PUSH2 0x351 JUMP JUMPDEST SWAP3 SWAP2 POP POP JUMP JUMPDEST PUSH32 0x4E487B7100000000000000000000000000000000000000000000000000000000 PUSH1 0x0 MSTORE PUSH1 0x11 PUSH1 0x4 MSTORE PUSH1 0x24 PUSH1 0x0 REVERT JUMPDEST PUSH1 0x0 PUSH2 0x3B5 DUP3 PUSH2 0x344 JUMP JUMPDEST SWAP2 POP PUSH1 0xFF DUP3 SUB PUSH2 0x3C8 JUMPI PUSH2 0x3C7 PUSH2 0x37B JUMP JUMPDEST JUMPDEST PUSH1 0x1 DUP3 ADD SWAP1 POP SWAP2 SWAP1 POP JUMP JUMPDEST PUSH1 0x0 PUSH2 0x3DE DUP3 PUSH2 0x219 JUMP JUMPDEST SWAP2 POP PUSH32 0x7FFFFFFFFFFFFFFFFFFFFFFFFFFFFFFFFFFFFFFFFFFFFFFFFFFFFFFFFFFFFFFF DUP3 SUB PUSH2 0x410 JUMPI PUSH2 0x40F PUSH2 0x37B JUMP JUMPDEST JUMPDEST PUSH1 0x1 DUP3 ADD SWAP1 POP SWAP2 SWAP1 POP JUMP JUMPDEST PUSH1 0x0 PUSH2 0x426 DUP3 PUSH2 0x219 JUMP JUMPDEST SWAP2 POP PUSH32 0x8000000000000000000000000000000000000000000000000000000000000000 DUP3 SUB PUSH2 0x458 JUMPI PUSH2 0x457 PUSH2 0x37B JUMP JUMPDEST JUMPDEST PUSH1 0x1 DUP3 SUB SWAP1 POP SWAP2 SWAP1 POP JUMP INVALID LOG2 PUSH5 0x6970667358 0x22 SLT KECCAK256 0xDE 0xB0 MSTORE PC 0xFB 0x5D PUSH27 0x9688DFBCCFAC7F561C97AF9110DB7554238444E550C704AEC06473 PUSH16 0x6C634300080E00330000000000000000 "
				},
				"gasEstimates": {
					"creation": {
						"codeDepositCost": "235400",
						"executionCost": "275",
						"totalCost": "235675"
					},
					"external": {
						"changeIntVal(bool)": "24839",
						"decrementUint8()": "26642",
						"foo()": "2451",
						"incrementUint8()": "26744",
						"myInt()": "2430",
						"myUint8()": "2515",
						"setUint(uint256)": "22543"
					},
					"internal": {
						"decrementInt()": "24366",
						"incrementInt()": "24366"
					}
				},
				"methodIdentifiers": {
					"changeIntVal(bool)": "c26e93fd",
					"decrementUint8()": "e62e0635",
					"foo()": "c2985578",
					"incrementUint8()": "84ea3606",
					"myInt()": "2cb777a6",
					"myUint8()": "e2a4b2af",
					"setUint(uint256)": "4ef65c3b"
				}
			},
			"storageLayout": {
				"storage": [
					{
						"astId": 3,
						"contract": "contracts/basicSyntax/exampleInt.sol:ExampleInt",
						"label": "foo",
						"offset": 0,
						"slot": "0",
						"type": "t_uint256"
					},
					{
						"astId": 5,
						"contract": "contracts/basicSyntax/exampleInt.sol:ExampleInt",
						"label": "myUint8",
						"offset": 0,
						"slot": "1",
						"type": "t_uint8"
					},
					{
						"astId": 7,
						"contract": "contracts/basicSyntax/exampleInt.sol:ExampleInt",
						"label": "myInt",
						"offset": 0,
						"slot": "2",
						"type": "t_int256"
					}
				],
				"types": {
					"t_int256": {
						"encoding": "inplace",
						"label": "int256",
						"numberOfBytes": "32"
					},
					"t_uint256": {
						"encoding": "inplace",
						"label": "uint256",
						"numberOfBytes": "32"
					},
					"t_uint8": {
						"encoding": "inplace",
						"label": "uint8",
						"numberOfBytes": "1"
					}
				}
			},
			"userdoc": {
				"kind": "user",
				"methods": {},
				"version": 1
			}
		}
	}
}