{
	"data": {
		"bytecode": {
			"linkReferences": {},
			"object": "608060405234801561001057600080fd5b5061043f806100206000396000f3fe608060405234801561001057600080fd5b50600436106100625760003560e01c80632768e00f146100675780632cb777a6146100715780634ef65c3b1461008f578063c26e93fd146100ab578063c2985578146100c7578063e2a4b2af146100e5575b600080fd5b61006f610103565b005b61007961013d565b60405161008691906101d8565b60405180910390f35b6100a960048036038101906100a4919061022e565b610143565b005b6100c560048036038101906100c09190610293565b61014d565b005b6100cf610172565b6040516100dc91906102cf565b60405180910390f35b6100ed610178565b6040516100fa9190610306565b60405180910390f35b6001600081819054906101000a900460ff168092919061012290610350565b91906101000a81548160ff021916908360ff16021790555050565b60025481565b8060008190555050565b60011515811515036101665761016161018b565b61016f565b61016e6101a5565b5b50565b60005481565b600160009054906101000a900460ff1681565b6002600081548092919061019e90610379565b9190505550565b600260008154809291906101b8906103c1565b9190505550565b6000819050919050565b6101d2816101bf565b82525050565b60006020820190506101ed60008301846101c9565b92915050565b600080fd5b6000819050919050565b61020b816101f8565b811461021657600080fd5b50565b60008135905061022881610202565b92915050565b600060208284031215610244576102436101f3565b5b600061025284828501610219565b91505092915050565b60008115159050919050565b6102708161025b565b811461027b57600080fd5b50565b60008135905061028d81610267565b92915050565b6000602082840312156102a9576102a86101f3565b5b60006102b78482850161027e565b91505092915050565b6102c9816101f8565b82525050565b60006020820190506102e460008301846102c0565b92915050565b600060ff82169050919050565b610300816102ea565b82525050565b600060208201905061031b60008301846102f7565b92915050565b7f4e487b7100000000000000000000000000000000000000000000000000000000600052601160045260246000fd5b600061035b826102ea565b915060ff820361036e5761036d610321565b5b600182019050919050565b6000610384826101bf565b91507f7fffffffffffffffffffffffffffffffffffffffffffffffffffffffffffffff82036103b6576103b5610321565b5b600182019050919050565b60006103cc826101bf565b91507f800000000000000000000000000000000000000000000000000000000000000082036103fe576103fd610321565b5b60018203905091905056fea26469706673582212209e6af43e05ad782b1e33b0ec9b9f4c2f248d8087b1a45392ed84b9d2a058deac64736f6c634300080e0033",
			"opcodes": "PUSH1 0x80 PUSH1 0x40 MSTORE CALLVALUE DUP1 ISZERO PUSH2 0x10 JUMPI PUSH1 0x0 DUP1 REVERT JUMPDEST POP PUSH2 0x43F DUP1 PUSH2 0x20 PUSH1 0x0 CODECOPY PUSH1 0x0 RETURN INVALID PUSH1 0x80 PUSH1 0x40 MSTORE CALLVALUE DUP1 ISZERO PUSH2 0x10 JUMPI PUSH1 0x0 DUP1 REVERT JUMPDEST POP PUSH1 0x4 CALLDATASIZE LT PUSH2 0x62 JUMPI PUSH1 0x0 CALLDATALOAD PUSH1 0xE0 SHR DUP1 PUSH4 0x2768E00F EQ PUSH2 0x67 JUMPI DUP1 PUSH4 0x2CB777A6 EQ PUSH2 0x71 JUMPI DUP1 PUSH4 0x4EF65C3B EQ PUSH2 0x8F JUMPI DUP1 PUSH4 0xC26E93FD EQ PUSH2 0xAB JUMPI DUP1 PUSH4 0xC2985578 EQ PUSH2 0xC7 JUMPI DUP1 PUSH4 0xE2A4B2AF EQ PUSH2 0xE5 JUMPI JUMPDEST PUSH1 0x0 DUP1 REVERT JUMPDEST PUSH2 0x6F PUSH2 0x103 JUMP JUMPDEST STOP JUMPDEST PUSH2 0x79 PUSH2 0x13D JUMP JUMPDEST PUSH1 0x40 MLOAD PUSH2 0x86 SWAP2 SWAP1 PUSH2 0x1D8 JUMP JUMPDEST PUSH1 0x40 MLOAD DUP1 SWAP2 SUB SWAP1 RETURN JUMPDEST PUSH2 0xA9 PUSH1 0x4 DUP1 CALLDATASIZE SUB DUP2 ADD SWAP1 PUSH2 0xA4 SWAP2 SWAP1 PUSH2 0x22E JUMP JUMPDEST PUSH2 0x143 JUMP JUMPDEST STOP JUMPDEST PUSH2 0xC5 PUSH1 0x4 DUP1 CALLDATASIZE SUB DUP2 ADD SWAP1 PUSH2 0xC0 SWAP2 SWAP1 PUSH2 0x293 JUMP JUMPDEST PUSH2 0x14D JUMP JUMPDEST STOP JUMPDEST PUSH2 0xCF PUSH2 0x172 JUMP JUMPDEST PUSH1 0x40 MLOAD PUSH2 0xDC SWAP2 SWAP1 PUSH2 0x2CF JUMP JUMPDEST PUSH1 0x40 MLOAD DUP1 SWAP2 SUB SWAP1 RETURN JUMPDEST PUSH2 0xED PUSH2 0x178 JUMP JUMPDEST PUSH1 0x40 MLOAD PUSH2 0xFA SWAP2 SWAP1 PUSH2 0x306 JUMP JUMPDEST PUSH1 0x40 MLOAD DUP1 SWAP2 SUB SWAP1 RETURN JUMPDEST PUSH1 0x1 PUSH1 0x0 DUP2 DUP2 SWAP1 SLOAD SWAP1 PUSH2 0x100 EXP SWAP1 DIV PUSH1 0xFF AND DUP1 SWAP3 SWAP2 SWAP1 PUSH2 0x122 SWAP1 PUSH2 0x350 JUMP JUMPDEST SWAP2 SWAP1 PUSH2 0x100 EXP DUP2 SLOAD DUP2 PUSH1 0xFF MUL NOT AND SWAP1 DUP4 PUSH1 0xFF AND MUL OR SWAP1 SSTORE POP POP JUMP JUMPDEST PUSH1 0x2 SLOAD DUP2 JUMP JUMPDEST DUP1 PUSH1 0x0 DUP2 SWAP1 SSTORE POP POP JUMP JUMPDEST PUSH1 0x1 ISZERO ISZERO DUP2 ISZERO ISZERO SUB PUSH2 0x166 JUMPI PUSH2 0x161 PUSH2 0x18B JUMP JUMPDEST PUSH2 0x16F JUMP JUMPDEST PUSH2 0x16E PUSH2 0x1A5 JUMP JUMPDEST JUMPDEST POP JUMP JUMPDEST PUSH1 0x0 SLOAD DUP2 JUMP JUMPDEST PUSH1 0x1 PUSH1 0x0 SWAP1 SLOAD SWAP1 PUSH2 0x100 EXP SWAP1 DIV PUSH1 0xFF AND DUP2 JUMP JUMPDEST PUSH1 0x2 PUSH1 0x0 DUP2 SLOAD DUP1 SWAP3 SWAP2 SWAP1 PUSH2 0x19E SWAP1 PUSH2 0x379 JUMP JUMPDEST SWAP2 SWAP1 POP SSTORE POP JUMP JUMPDEST PUSH1 0x2 PUSH1 0x0 DUP2 SLOAD DUP1 SWAP3 SWAP2 SWAP1 PUSH2 0x1B8 SWAP1 PUSH2 0x3C1 JUMP JUMPDEST SWAP2 SWAP1 POP SSTORE POP JUMP JUMPDEST PUSH1 0x0 DUP2 SWAP1 POP SWAP2 SWAP1 POP JUMP JUMPDEST PUSH2 0x1D2 DUP2 PUSH2 0x1BF JUMP JUMPDEST DUP3 MSTORE POP POP JUMP JUMPDEST PUSH1 0x0 PUSH1 0x20 DUP3 ADD SWAP1 POP PUSH2 0x1ED PUSH1 0x0 DUP4 ADD DUP5 PUSH2 0x1C9 JUMP JUMPDEST SWAP3 SWAP2 POP POP JUMP JUMPDEST PUSH1 0x0 DUP1 REVERT JUMPDEST PUSH1 0x0 DUP2 SWAP1 POP SWAP2 SWAP1 POP JUMP JUMPDEST PUSH2 0x20B DUP2 PUSH2 0x1F8 JUMP JUMPDEST DUP2 EQ PUSH2 0x216 JUMPI PUSH1 0x0 DUP1 REVERT JUMPDEST POP JUMP JUMPDEST PUSH1 0x0 DUP2 CALLDATALOAD SWAP1 POP PUSH2 0x228 DUP2 PUSH2 0x202 JUMP JUMPDEST SWAP3 SWAP2 POP POP JUMP JUMPDEST PUSH1 0x0 PUSH1 0x20 DUP3 DUP5 SUB SLT ISZERO PUSH2 0x244 JUMPI PUSH2 0x243 PUSH2 0x1F3 JUMP JUMPDEST JUMPDEST PUSH1 0x0 PUSH2 0x252 DUP5 DUP3 DUP6 ADD PUSH2 0x219 JUMP JUMPDEST SWAP2 POP POP SWAP3 SWAP2 POP POP JUMP JUMPDEST PUSH1 0x0 DUP2 ISZERO ISZERO SWAP1 POP SWAP2 SWAP1 POP JUMP JUMPDEST PUSH2 0x270 DUP2 PUSH2 0x25B JUMP JUMPDEST DUP2 EQ PUSH2 0x27B JUMPI PUSH1 0x0 DUP1 REVERT JUMPDEST POP JUMP JUMPDEST PUSH1 0x0 DUP2 CALLDATALOAD SWAP1 POP PUSH2 0x28D DUP2 PUSH2 0x267 JUMP JUMPDEST SWAP3 SWAP2 POP POP JUMP JUMPDEST PUSH1 0x0 PUSH1 0x20 DUP3 DUP5 SUB SLT ISZERO PUSH2 0x2A9 JUMPI PUSH2 0x2A8 PUSH2 0x1F3 JUMP JUMPDEST JUMPDEST PUSH1 0x0 PUSH2 0x2B7 DUP5 DUP3 DUP6 ADD PUSH2 0x27E JUMP JUMPDEST SWAP2 POP POP SWAP3 SWAP2 POP POP JUMP JUMPDEST PUSH2 0x2C9 DUP2 PUSH2 0x1F8 JUMP JUMPDEST DUP3 MSTORE POP POP JUMP JUMPDEST PUSH1 0x0 PUSH1 0x20 DUP3 ADD SWAP1 POP PUSH2 0x2E4 PUSH1 0x0 DUP4 ADD DUP5 PUSH2 0x2C0 JUMP JUMPDEST SWAP3 SWAP2 POP POP JUMP JUMPDEST PUSH1 0x0 PUSH1 0xFF DUP3 AND SWAP1 POP SWAP2 SWAP1 POP JUMP JUMPDEST PUSH2 0x300 DUP2 PUSH2 0x2EA JUMP JUMPDEST DUP3 MSTORE POP POP JUMP JUMPDEST PUSH1 0x0 PUSH1 0x20 DUP3 ADD SWAP1 POP PUSH2 0x31B PUSH1 0x0 DUP4 ADD DUP5 PUSH2 0x2F7 JUMP JUMPDEST SWAP3 SWAP2 POP POP JUMP JUMPDEST PUSH32 0x4E487B7100000000000000000000000000000000000000000000000000000000 PUSH1 0x0 MSTORE PUSH1 0x11 PUSH1 0x4 MSTORE PUSH1 0x24 PUSH1 0x0 REVERT JUMPDEST PUSH1 0x0 PUSH2 0x35B DUP3 PUSH2 0x2EA JUMP JUMPDEST SWAP2 POP PUSH1 0xFF DUP3 SUB PUSH2 0x36E JUMPI PUSH2 0x36D PUSH2 0x321 JUMP JUMPDEST JUMPDEST PUSH1 0x1 DUP3 ADD SWAP1 POP SWAP2 SWAP1 POP JUMP JUMPDEST PUSH1 0x0 PUSH2 0x384 DUP3 PUSH2 0x1BF JUMP JUMPDEST SWAP2 POP PUSH32 0x7FFFFFFFFFFFFFFFFFFFFFFFFFFFFFFFFFFFFFFFFFFFFFFFFFFFFFFFFFFFFFFF DUP3 SUB PUSH2 0x3B6 JUMPI PUSH2 0x3B5 PUSH2 0x321 JUMP JUMPDEST JUMPDEST PUSH1 0x1 DUP3 ADD SWAP1 POP SWAP2 SWAP1 POP JUMP JUMPDEST PUSH1 0x0 PUSH2 0x3CC DUP3 PUSH2 0x1BF JUMP JUMPDEST SWAP2 POP PUSH32 0x8000000000000000000000000000000000000000000000000000000000000000 DUP3 SUB PUSH2 0x3FE JUMPI PUSH2 0x3FD PUSH2 0x321 JUMP JUMPDEST JUMPDEST PUSH1 0x1 DUP3 SUB SWAP1 POP SWAP2 SWAP1 POP JUMP INVALID LOG2 PUSH5 0x6970667358 0x22 SLT KECCAK256 SWAP15 PUSH11 0xF43E05AD782B1E33B0EC9B SWAP16 0x4C 0x2F 0x24 DUP14 DUP1 DUP8 0xB1 LOG4 MSTORE8 SWAP3 0xED DUP5 0xB9 0xD2 LOG0 PC 0xDE 0xAC PUSH5 0x736F6C6343 STOP ADDMOD 0xE STOP CALLER "
		},
		"gasEstimates": {
			"creation": {
				"codeDepositCost": "217400",
				"executionCost": "257",
				"totalCost": "217657"
			},
			"external": {
				"changeIntVal(bool)": "24883",
				"foo()": "2495",
				"incrementUint9()": "26677",
				"myInt()": "2429",
				"myUint8()": "2559",
				"setUint(uint256)": "22542"
			},
			"internal": {
				"decrementInt()": "24366",
				"incrementInt()": "24366"
			}
		},
		"methodIdentifiers": {
			"changeIntVal(bool)": "c26e93fd",
			"foo()": "c2985578",
			"incrementUint9()": "2768e00f",
			"myInt()": "2cb777a6",
			"myUint8()": "e2a4b2af",
			"setUint(uint256)": "4ef65c3b"
		}
	},
	"abi": [
		{
			"inputs": [
				{
					"internalType": "bool",
					"name": "toIncrement",
					"type": "bool"
				}
			],
			"name": "changeIntVal",
			"outputs": [],
			"stateMutability": "nonpayable",
			"type": "function"
		},
		{
			"inputs": [],
			"name": "foo",
			"outputs": [
				{
					"internalType": "uint256",
					"name": "",
					"type": "uint256"
				}
			],
			"stateMutability": "view",
			"type": "function"
		},
		{
			"inputs": [],
			"name": "incrementUint9",
			"outputs": [],
			"stateMutability": "nonpayable",
			"type": "function"
		},
		{
			"inputs": [],
			"name": "myInt",
			"outputs": [
				{
					"internalType": "int256",
					"name": "",
					"type": "int256"
				}
			],
			"stateMutability": "view",
			"type": "function"
		},
		{
			"inputs": [],
			"name": "myUint8",
			"outputs": [
				{
					"internalType": "uint8",
					"name": "",
					"type": "uint8"
				}
			],
			"stateMutability": "view",
			"type": "function"
		},
		{
			"inputs": [
				{
					"internalType": "uint256",
					"name": "_newVal",
					"type": "uint256"
				}
			],
			"name": "setUint",
			"outputs": [],
			"stateMutability": "nonpayable",
			"type": "function"
		}
	]
}